{
  "contractName": "ERC721",
  "abi": [
    {
      "inputs": [
        {
          "internalType": "string",
          "name": "name_",
          "type": "string"
        },
        {
          "internalType": "string",
          "name": "symbol_",
          "type": "string"
        }
      ],
      "stateMutability": "nonpayable",
      "type": "constructor"
    },
    {
      "anonymous": false,
      "inputs": [
        {
          "indexed": true,
          "internalType": "address",
          "name": "owner",
          "type": "address"
        },
        {
          "indexed": true,
          "internalType": "address",
          "name": "approved",
          "type": "address"
        },
        {
          "indexed": true,
          "internalType": "uint256",
          "name": "tokenId",
          "type": "uint256"
        }
      ],
      "name": "Approval",
      "type": "event"
    },
    {
      "anonymous": false,
      "inputs": [
        {
          "indexed": true,
          "internalType": "address",
          "name": "owner",
          "type": "address"
        },
        {
          "indexed": true,
          "internalType": "address",
          "name": "operator",
          "type": "address"
        },
        {
          "indexed": false,
          "internalType": "bool",
          "name": "approved",
          "type": "bool"
        }
      ],
      "name": "ApprovalForAll",
      "type": "event"
    },
    {
      "anonymous": false,
      "inputs": [
        {
          "indexed": true,
          "internalType": "address",
          "name": "from",
          "type": "address"
        },
        {
          "indexed": true,
          "internalType": "address",
          "name": "to",
          "type": "address"
        },
        {
          "indexed": true,
          "internalType": "uint256",
          "name": "tokenId",
          "type": "uint256"
        }
      ],
      "name": "Transfer",
      "type": "event"
    },
    {
      "inputs": [
        {
          "internalType": "bytes4",
          "name": "interfaceId",
          "type": "bytes4"
        }
      ],
      "name": "supportsInterface",
      "outputs": [
        {
          "internalType": "bool",
          "name": "",
          "type": "bool"
        }
      ],
      "stateMutability": "view",
      "type": "function",
      "constant": true
    },
    {
      "inputs": [
        {
          "internalType": "address",
          "name": "owner",
          "type": "address"
        }
      ],
      "name": "balanceOf",
      "outputs": [
        {
          "internalType": "uint256",
          "name": "",
          "type": "uint256"
        }
      ],
      "stateMutability": "view",
      "type": "function",
      "constant": true
    },
    {
      "inputs": [
        {
          "internalType": "uint256",
          "name": "tokenId",
          "type": "uint256"
        }
      ],
      "name": "ownerOf",
      "outputs": [
        {
          "internalType": "address",
          "name": "",
          "type": "address"
        }
      ],
      "stateMutability": "view",
      "type": "function",
      "constant": true
    },
    {
      "inputs": [],
      "name": "name",
      "outputs": [
        {
          "internalType": "string",
          "name": "",
          "type": "string"
        }
      ],
      "stateMutability": "view",
      "type": "function",
      "constant": true
    },
    {
      "inputs": [],
      "name": "symbol",
      "outputs": [
        {
          "internalType": "string",
          "name": "",
          "type": "string"
        }
      ],
      "stateMutability": "view",
      "type": "function",
      "constant": true
    },
    {
      "inputs": [
        {
          "internalType": "uint256",
          "name": "tokenId",
          "type": "uint256"
        }
      ],
      "name": "tokenURI",
      "outputs": [
        {
          "internalType": "string",
          "name": "",
          "type": "string"
        }
      ],
      "stateMutability": "view",
      "type": "function",
      "constant": true
    },
    {
      "inputs": [],
      "name": "getAllTokensHash",
      "outputs": [
        {
          "internalType": "string[]",
          "name": "",
          "type": "string[]"
        }
      ],
      "stateMutability": "view",
      "type": "function",
      "constant": true
    },
    {
      "inputs": [
        {
          "internalType": "address",
          "name": "owner",
          "type": "address"
        }
      ],
      "name": "getMyAllTokenids",
      "outputs": [
        {
          "internalType": "uint256[]",
          "name": "",
          "type": "uint256[]"
        }
      ],
      "stateMutability": "view",
      "type": "function",
      "constant": true
    },
    {
      "inputs": [
        {
          "internalType": "address",
          "name": "owner",
          "type": "address"
        }
      ],
      "name": "getMyAllTokensHash",
      "outputs": [
        {
          "internalType": "string[]",
          "name": "",
          "type": "string[]"
        }
      ],
      "stateMutability": "view",
      "type": "function",
      "constant": true
    },
    {
      "inputs": [],
      "name": "getAllEnableTokenIds",
      "outputs": [
        {
          "internalType": "uint256[]",
          "name": "",
          "type": "uint256[]"
        }
      ],
      "stateMutability": "view",
      "type": "function",
      "constant": true
    },
    {
      "inputs": [
        {
          "internalType": "address",
          "name": "to",
          "type": "address"
        },
        {
          "internalType": "uint256",
          "name": "tokenId",
          "type": "uint256"
        }
      ],
      "name": "approve",
      "outputs": [],
      "stateMutability": "nonpayable",
      "type": "function"
    },
    {
      "inputs": [
        {
          "internalType": "uint256",
          "name": "tokenId",
          "type": "uint256"
        }
      ],
      "name": "getApproved",
      "outputs": [
        {
          "internalType": "address",
          "name": "",
          "type": "address"
        }
      ],
      "stateMutability": "view",
      "type": "function",
      "constant": true
    },
    {
      "inputs": [
        {
          "internalType": "address",
          "name": "operator",
          "type": "address"
        },
        {
          "internalType": "bool",
          "name": "approved",
          "type": "bool"
        }
      ],
      "name": "setApprovalForAll",
      "outputs": [],
      "stateMutability": "nonpayable",
      "type": "function"
    },
    {
      "inputs": [
        {
          "internalType": "address",
          "name": "owner",
          "type": "address"
        },
        {
          "internalType": "address",
          "name": "operator",
          "type": "address"
        }
      ],
      "name": "isApprovedForAll",
      "outputs": [
        {
          "internalType": "bool",
          "name": "",
          "type": "bool"
        }
      ],
      "stateMutability": "view",
      "type": "function",
      "constant": true
    },
    {
      "inputs": [
        {
          "internalType": "address",
          "name": "from",
          "type": "address"
        },
        {
          "internalType": "address",
          "name": "to",
          "type": "address"
        },
        {
          "internalType": "uint256",
          "name": "tokenId",
          "type": "uint256"
        }
      ],
      "name": "transferFrom",
      "outputs": [],
      "stateMutability": "nonpayable",
      "type": "function"
    },
    {
      "inputs": [
        {
          "internalType": "address",
          "name": "from",
          "type": "address"
        },
        {
          "internalType": "address",
          "name": "to",
          "type": "address"
        },
        {
          "internalType": "uint256",
          "name": "tokenId",
          "type": "uint256"
        }
      ],
      "name": "safeTransferFrom",
      "outputs": [],
      "stateMutability": "nonpayable",
      "type": "function"
    },
    {
      "inputs": [
        {
          "internalType": "address",
          "name": "from",
          "type": "address"
        },
        {
          "internalType": "address",
          "name": "to",
          "type": "address"
        },
        {
          "internalType": "uint256",
          "name": "tokenId",
          "type": "uint256"
        },
        {
          "internalType": "bytes",
          "name": "_data",
          "type": "bytes"
        }
      ],
      "name": "safeTransferFrom",
      "outputs": [],
      "stateMutability": "nonpayable",
      "type": "function"
    },
    {
      "inputs": [
        {
          "internalType": "address",
          "name": "to",
          "type": "address"
        },
        {
          "internalType": "string",
          "name": "ipfsHash",
          "type": "string"
        }
      ],
      "name": "mint",
      "outputs": [
        {
          "internalType": "uint256",
          "name": "",
          "type": "uint256"
        }
      ],
      "stateMutability": "nonpayable",
      "type": "function"
    },
    {
      "inputs": [
        {
          "internalType": "address",
          "name": "buyer",
          "type": "address"
        },
        {
          "internalType": "address payable",
          "name": "seller",
          "type": "address"
        },
        {
          "internalType": "uint256",
          "name": "tokenId",
          "type": "uint256"
        }
      ],
      "name": "purchase",
      "outputs": [],
      "stateMutability": "payable",
      "type": "function",
      "payable": true
    },
    {
      "inputs": [
        {
          "internalType": "uint256",
          "name": "tokenId",
          "type": "uint256"
        }
      ],
      "name": "burn",
      "outputs": [],
      "stateMutability": "nonpayable",
      "type": "function"
    }
  ],
  "bytecode": "0x60806040523480156200001157600080fd5b5060405162003f2438038062003f24833981810160405281019062000037919062000193565b81600190805190602001906200004f92919062000071565b5080600290805190602001906200006892919062000071565b50505062000337565b8280546200007f90620002a3565b90600052602060002090601f016020900481019282620000a35760008555620000ef565b82601f10620000be57805160ff1916838001178555620000ef565b82800160010185558215620000ef579182015b82811115620000ee578251825591602001919060010190620000d1565b5b509050620000fe919062000102565b5090565b5b808211156200011d57600081600090555060010162000103565b5090565b60006200013862000132846200023a565b62000206565b9050828152602081018484840111156200015157600080fd5b6200015e8482856200026d565b509392505050565b600082601f8301126200017857600080fd5b81516200018a84826020860162000121565b91505092915050565b60008060408385031215620001a757600080fd5b600083015167ffffffffffffffff811115620001c257600080fd5b620001d08582860162000166565b925050602083015167ffffffffffffffff811115620001ee57600080fd5b620001fc8582860162000166565b9150509250929050565b6000604051905081810181811067ffffffffffffffff8211171562000230576200022f62000308565b5b8060405250919050565b600067ffffffffffffffff82111562000258576200025762000308565b5b601f19601f8301169050602081019050919050565b60005b838110156200028d57808201518184015260208101905062000270565b838111156200029d576000848401525b50505050565b60006002820490506001821680620002bc57607f821691505b60208210811415620002d357620002d2620002d9565b5b50919050565b7f4e487b7100000000000000000000000000000000000000000000000000000000600052602260045260246000fd5b7f4e487b7100000000000000000000000000000000000000000000000000000000600052604160045260246000fd5b613bdd80620003476000396000f3fe60806040526004361061011f5760003560e01c80636352211e116100a0578063a22cb46511610064578063a22cb465146103fe578063b88d4fde14610427578063c87b56dd14610450578063d0def5211461048d578063e985e9c5146104ca5761011f565b80636352211e14610312578063640441561461034f57806370a082311461036b57806395d89b41146103a8578063990a72cb146103d35761011f565b806323b872dd116100e757806323b872dd1461022f5780632a4034d71461025857806342842e0e1461029557806342966c68146102be5780634967bb35146102e75761011f565b806301ffc9a71461012457806306fdde0314610161578063081812fc1461018c578063095ea7b3146101c95780631fe9c062146101f2575b600080fd5b34801561013057600080fd5b5061014b60048036038101906101469190612c5b565b610507565b6040516101589190613555565b60405180910390f35b34801561016d57600080fd5b506101766105e9565b6040516101839190613570565b60405180910390f35b34801561019857600080fd5b506101b360048036038101906101ae9190612cad565b61067b565b6040516101c091906134aa565b60405180910390f35b3480156101d557600080fd5b506101f060048036038101906101eb9190612c1f565b610700565b005b3480156101fe57600080fd5b5061021960048036038101906102149190612a0d565b610818565b6040516102269190613533565b60405180910390f35b34801561023b57600080fd5b5061025660048036038101906102519190612ac1565b6108af565b005b34801561026457600080fd5b5061027f600480360381019061027a9190612a0d565b61090f565b60405161028c9190613511565b60405180910390f35b3480156102a157600080fd5b506102bc60048036038101906102b79190612ac1565b610b9f565b005b3480156102ca57600080fd5b506102e560048036038101906102e09190612cad565b610bbf565b005b3480156102f357600080fd5b506102fc6111a9565b6040516103099190613511565b60405180910390f35b34801561031e57600080fd5b5061033960048036038101906103349190612cad565b611380565b60405161034691906134aa565b60405180910390f35b61036960048036038101906103649190612a72565b611432565b005b34801561037757600080fd5b50610392600480360381019061038d9190612a0d565b61157a565b60405161039f9190613792565b60405180910390f35b3480156103b457600080fd5b506103bd611632565b6040516103ca9190613570565b60405180910390f35b3480156103df57600080fd5b506103e86116c4565b6040516103f59190613533565b60405180910390f35b34801561040a57600080fd5b5061042560048036038101906104209190612b8b565b61171c565b005b34801561043357600080fd5b5061044e60048036038101906104499190612b10565b61189d565b005b34801561045c57600080fd5b5061047760048036038101906104729190612cad565b6118ff565b6040516104849190613570565b60405180910390f35b34801561049957600080fd5b506104b460048036038101906104af9190612bc7565b6119f5565b6040516104c19190613792565b60405180910390f35b3480156104d657600080fd5b506104f160048036038101906104ec9190612a36565b611cdf565b6040516104fe9190613555565b60405180910390f35b60007f80ac58cd000000000000000000000000000000000000000000000000000000007bffffffffffffffffffffffffffffffffffffffffffffffffffffffff1916827bffffffffffffffffffffffffffffffffffffffffffffffffffffffff191614806105d257507f5b5e139f000000000000000000000000000000000000000000000000000000007bffffffffffffffffffffffffffffffffffffffffffffffffffffffff1916827bffffffffffffffffffffffffffffffffffffffffffffffffffffffff1916145b806105e257506105e182611d73565b5b9050919050565b6060600180546105f890613a1b565b80601f016020809104026020016040519081016040528092919081815260200182805461062490613a1b565b80156106715780601f1061064657610100808354040283529160200191610671565b820191906000526020600020905b81548152906001019060200180831161065457829003601f168201915b5050505050905090565b600061068682611ddd565b6106c5576040517f08c379a00000000000000000000000000000000000000000000000000000000081526004016106bc906136b2565b60405180910390fd5b6005600083815260200190815260200160002060009054906101000a900473ffffffffffffffffffffffffffffffffffffffff169050919050565b600061070b82611380565b90508073ffffffffffffffffffffffffffffffffffffffff168373ffffffffffffffffffffffffffffffffffffffff16141561077c576040517f08c379a000000000000000000000000000000000000000000000000000000000815260040161077390613712565b60405180910390fd5b8073ffffffffffffffffffffffffffffffffffffffff1661079b611e49565b73ffffffffffffffffffffffffffffffffffffffff1614806107ca57506107c9816107c4611e49565b611cdf565b5b610809576040517f08c379a000000000000000000000000000000000000000000000000000000000815260040161080090613612565b60405180910390fd5b6108138383611e51565b505050565b6060600960008373ffffffffffffffffffffffffffffffffffffffff1673ffffffffffffffffffffffffffffffffffffffff1681526020019081526020016000208054806020026020016040519081016040528092919081815260200182805480156108a357602002820191906000526020600020905b81548152602001906001019080831161088f575b50505050509050919050565b6108c06108ba611e49565b82611f0a565b6108ff576040517f08c379a00000000000000000000000000000000000000000000000000000000081526004016108f690613752565b60405180910390fd5b61090a838383611fe8565b505050565b60606000600960008473ffffffffffffffffffffffffffffffffffffffff1673ffffffffffffffffffffffffffffffffffffffff1681526020019081526020016000208054905067ffffffffffffffff811115610995577f4e487b7100000000000000000000000000000000000000000000000000000000600052604160045260246000fd5b6040519080825280602002602001820160405280156109c857816020015b60608152602001906001900390816109b35790505b50905060005b600960008573ffffffffffffffffffffffffffffffffffffffff1673ffffffffffffffffffffffffffffffffffffffff16815260200190815260200160002080549050811015610b9557600060076000600960008873ffffffffffffffffffffffffffffffffffffffff1673ffffffffffffffffffffffffffffffffffffffff1681526020019081526020016000208481548110610a95577f4e487b7100000000000000000000000000000000000000000000000000000000600052603260045260246000fd5b906000526020600020015481526020019081526020016000206001018054610abc90613a1b565b80601f0160208091040260200160405190810160405280929190818152602001828054610ae890613a1b565b8015610b355780601f10610b0a57610100808354040283529160200191610b35565b820191906000526020600020905b815481529060010190602001808311610b1857829003601f168201915b5050505050905080838381518110610b76577f4e487b7100000000000000000000000000000000000000000000000000000000600052603260045260246000fd5b6020026020010181905250508080610b8d90613a4d565b9150506109ce565b5080915050919050565b610bba8383836040518060200160405280600081525061189d565b505050565b610bc881611ddd565b610c07576040517f08c379a0000000000000000000000000000000000000000000000000000000008152600401610bfe906135f2565b60405180910390fd5b6000610c1282611380565b90503373ffffffffffffffffffffffffffffffffffffffff168173ffffffffffffffffffffffffffffffffffffffff1614610c82576040517f08c379a0000000000000000000000000000000000000000000000000000000008152600401610c7990613732565b60405180910390fd5b610c8d600083611e51565b6001600460008373ffffffffffffffffffffffffffffffffffffffff1673ffffffffffffffffffffffffffffffffffffffff1681526020019081526020016000206000828254610cdd919061391f565b925050819055506003600083815260200190815260200160002060006101000a81549073ffffffffffffffffffffffffffffffffffffffff021916905560005b600960008373ffffffffffffffffffffffffffffffffffffffff1673ffffffffffffffffffffffffffffffffffffffff16815260200190815260200160002080549050811015610fea5782600960008473ffffffffffffffffffffffffffffffffffffffff1673ffffffffffffffffffffffffffffffffffffffff1681526020019081526020016000208281548110610ddf577f4e487b7100000000000000000000000000000000000000000000000000000000600052603260045260246000fd5b90600052602060002001541415610fd757600960008373ffffffffffffffffffffffffffffffffffffffff1673ffffffffffffffffffffffffffffffffffffffff1681526020019081526020016000206001600960008573ffffffffffffffffffffffffffffffffffffffff1673ffffffffffffffffffffffffffffffffffffffff16815260200190815260200160002080549050610e7e919061391f565b81548110610eb5577f4e487b7100000000000000000000000000000000000000000000000000000000600052603260045260246000fd5b9060005260206000200154600960008473ffffffffffffffffffffffffffffffffffffffff1673ffffffffffffffffffffffffffffffffffffffff1681526020019081526020016000208281548110610f37577f4e487b7100000000000000000000000000000000000000000000000000000000600052603260045260246000fd5b9060005260206000200181905550600960008373ffffffffffffffffffffffffffffffffffffffff1673ffffffffffffffffffffffffffffffffffffffff168152602001908152602001600020805480610fba577f4e487b7100000000000000000000000000000000000000000000000000000000600052603160045260246000fd5b6001900381819060005260206000200160009055905550506111a6565b8080610fe290613a4d565b915050610d1d565b5060006001600880549050610fff919061391f565b905060006008828154811061103d577f4e487b7100000000000000000000000000000000000000000000000000000000600052603260045260246000fd5b9060005260206000200154905060006007600086815260200190815260200160002060000154905081600882815481106110a0577f4e487b7100000000000000000000000000000000000000000000000000000000600052603260045260246000fd5b906000526020600020018190555060088054806110e6577f4e487b7100000000000000000000000000000000000000000000000000000000600052603160045260246000fd5b600190038181906000526020600020016000905590558060076000848152602001908152602001600020600001819055506007600086815260200190815260200160002060008082016000905560018201600061114391906127fa565b505084600073ffffffffffffffffffffffffffffffffffffffff168573ffffffffffffffffffffffffffffffffffffffff167fddf252ad1be2c89b69c2b068fc378daa952ba7f163c4a11628f55a4df523b3ef60405160405180910390a4505050505b50565b6060600060088054905067ffffffffffffffff8111156111f2577f4e487b7100000000000000000000000000000000000000000000000000000000600052604160045260246000fd5b60405190808252806020026020018201604052801561122557816020015b60608152602001906001900390816112105790505b50905060005b6008805490508110156113785760006007600060088481548110611278577f4e487b7100000000000000000000000000000000000000000000000000000000600052603260045260246000fd5b90600052602060002001548152602001908152602001600020600101805461129f90613a1b565b80601f01602080910402602001604051908101604052809291908181526020018280546112cb90613a1b565b80156113185780601f106112ed57610100808354040283529160200191611318565b820191906000526020600020905b8154815290600101906020018083116112fb57829003601f168201915b5050505050905080838381518110611359577f4e487b7100000000000000000000000000000000000000000000000000000000600052603260045260246000fd5b602002602001018190525050808061137090613a4d565b91505061122b565b508091505090565b6000806003600084815260200190815260200160002060009054906101000a900473ffffffffffffffffffffffffffffffffffffffff169050600073ffffffffffffffffffffffffffffffffffffffff168173ffffffffffffffffffffffffffffffffffffffff161415611429576040517f08c379a000000000000000000000000000000000000000000000000000000000815260040161142090613652565b60405180910390fd5b80915050919050565b8273ffffffffffffffffffffffffffffffffffffffff163373ffffffffffffffffffffffffffffffffffffffff161461146a57600080fd5b8173ffffffffffffffffffffffffffffffffffffffff163373ffffffffffffffffffffffffffffffffffffffff1614156114d9576040517f08c379a00000000000000000000000000000000000000000000000000000000081526004016114d090613772565b60405180910390fd5b6114e281611380565b73ffffffffffffffffffffffffffffffffffffffff168273ffffffffffffffffffffffffffffffffffffffff161461151957600080fd5b6115238382611e51565b8173ffffffffffffffffffffffffffffffffffffffff166108fc349081150290604051600060405180830381858888f19350505050158015611569573d6000803e3d6000fd5b50611575828483610b9f565b505050565b60008073ffffffffffffffffffffffffffffffffffffffff168273ffffffffffffffffffffffffffffffffffffffff1614156115eb576040517f08c379a00000000000000000000000000000000000000000000000000000000081526004016115e290613632565b60405180910390fd5b600460008373ffffffffffffffffffffffffffffffffffffffff1673ffffffffffffffffffffffffffffffffffffffff168152602001908152602001600020549050919050565b60606002805461164190613a1b565b80601f016020809104026020016040519081016040528092919081815260200182805461166d90613a1b565b80156116ba5780601f1061168f576101008083540402835291602001916116ba565b820191906000526020600020905b81548152906001019060200180831161169d57829003601f168201915b5050505050905090565b6060600880548060200260200160405190810160405280929190818152602001828054801561171257602002820191906000526020600020905b8154815260200190600101908083116116fe575b5050505050905090565b611724611e49565b73ffffffffffffffffffffffffffffffffffffffff168273ffffffffffffffffffffffffffffffffffffffff161415611792576040517f08c379a0000000000000000000000000000000000000000000000000000000008152600401611789906135d2565b60405180910390fd5b806006600061179f611e49565b73ffffffffffffffffffffffffffffffffffffffff1673ffffffffffffffffffffffffffffffffffffffff16815260200190815260200160002060008473ffffffffffffffffffffffffffffffffffffffff1673ffffffffffffffffffffffffffffffffffffffff16815260200190815260200160002060006101000a81548160ff0219169083151502179055508173ffffffffffffffffffffffffffffffffffffffff1661184c611e49565b73ffffffffffffffffffffffffffffffffffffffff167f17307eab39ab6107e8899845ad3d59bd9653f200f220920489ca2b5937696c31836040516118919190613555565b60405180910390a35050565b6118ae6118a8611e49565b83611f0a565b6118ed576040517f08c379a00000000000000000000000000000000000000000000000000000000081526004016118e490613752565b60405180910390fd5b6118f98484848461256a565b50505050565b606061190a82611ddd565b611949576040517f08c379a0000000000000000000000000000000000000000000000000000000008152600401611940906136f2565b60405180910390fd5b600060076000848152602001908152602001600020600101805461196c90613a1b565b80601f016020809104026020016040519081016040528092919081815260200182805461199890613a1b565b80156119e55780601f106119ba576101008083540402835291602001916119e5565b820191906000526020600020905b8154815290600101906020018083116119c857829003601f168201915b5050505050905080915050919050565b60008073ffffffffffffffffffffffffffffffffffffffff168473ffffffffffffffffffffffffffffffffffffffff161415611a66576040517f08c379a0000000000000000000000000000000000000000000000000000000008152600401611a5d90613692565b60405180910390fd5b8373ffffffffffffffffffffffffffffffffffffffff163373ffffffffffffffffffffffffffffffffffffffff1614611a9e57600080fd5b6000611aaa60006125c6565b9050611ab660006125d4565b6000600760008381526020019081526020016000209050336003600084815260200190815260200160002060006101000a81548173ffffffffffffffffffffffffffffffffffffffff021916908373ffffffffffffffffffffffffffffffffffffffff1602179055506001600460008873ffffffffffffffffffffffffffffffffffffffff1673ffffffffffffffffffffffffffffffffffffffff1681526020019081526020016000206000828254611b6f91906138c9565b92505081905550600960008773ffffffffffffffffffffffffffffffffffffffff1673ffffffffffffffffffffffffffffffffffffffff168152602001908152602001600020829080600181540180825580915050600190039060005260206000200160009091909190915055611c2b828287878080601f016020809104026020016040519081016040528093929190818152602001838380828437600081840152601f19601f820116905080830192505050505050506125ea565b60088290806001815401808255809150506001900390600052602060002001600090919091909150556001600880549050611c66919061391f565b8160000181905550818673ffffffffffffffffffffffffffffffffffffffff16600073ffffffffffffffffffffffffffffffffffffffff167fddf252ad1be2c89b69c2b068fc378daa952ba7f163c4a11628f55a4df523b3ef60405160405180910390a4611cd460006125c6565b925050509392505050565b6000600660008473ffffffffffffffffffffffffffffffffffffffff1673ffffffffffffffffffffffffffffffffffffffff16815260200190815260200160002060008373ffffffffffffffffffffffffffffffffffffffff1673ffffffffffffffffffffffffffffffffffffffff16815260200190815260200160002060009054906101000a900460ff16905092915050565b60007f01ffc9a7000000000000000000000000000000000000000000000000000000007bffffffffffffffffffffffffffffffffffffffffffffffffffffffff1916827bffffffffffffffffffffffffffffffffffffffffffffffffffffffff1916149050919050565b60008073ffffffffffffffffffffffffffffffffffffffff166003600084815260200190815260200160002060009054906101000a900473ffffffffffffffffffffffffffffffffffffffff1673ffffffffffffffffffffffffffffffffffffffff1614159050919050565b600033905090565b816005600083815260200190815260200160002060006101000a81548173ffffffffffffffffffffffffffffffffffffffff021916908373ffffffffffffffffffffffffffffffffffffffff160217905550808273ffffffffffffffffffffffffffffffffffffffff16611ec483611380565b73ffffffffffffffffffffffffffffffffffffffff167f8c5be1e5ebec7d5bd14f71427d1e84f3dd0314c0f7b2291e5b200ac8c7c3b92560405160405180910390a45050565b6000611f1582611ddd565b611f54576040517f08c379a0000000000000000000000000000000000000000000000000000000008152600401611f4b906135f2565b60405180910390fd5b6000611f5f83611380565b90508073ffffffffffffffffffffffffffffffffffffffff168473ffffffffffffffffffffffffffffffffffffffff161480611fce57508373ffffffffffffffffffffffffffffffffffffffff16611fb68461067b565b73ffffffffffffffffffffffffffffffffffffffff16145b80611fdf5750611fde8185611cdf565b5b91505092915050565b8273ffffffffffffffffffffffffffffffffffffffff1661200882611380565b73ffffffffffffffffffffffffffffffffffffffff161461205e576040517f08c379a0000000000000000000000000000000000000000000000000000000008152600401612055906136d2565b60405180910390fd5b600073ffffffffffffffffffffffffffffffffffffffff168273ffffffffffffffffffffffffffffffffffffffff1614156120ce576040517f08c379a00000000000000000000000000000000000000000000000000000000081526004016120c5906135b2565b60405180910390fd5b6120d9600082611e51565b6001600460008573ffffffffffffffffffffffffffffffffffffffff1673ffffffffffffffffffffffffffffffffffffffff1681526020019081526020016000206000828254612129919061391f565b925050819055506001600460008473ffffffffffffffffffffffffffffffffffffffff1673ffffffffffffffffffffffffffffffffffffffff168152602001908152602001600020600082825461218091906138c9565b92505081905550816003600083815260200190815260200160002060006101000a81548173ffffffffffffffffffffffffffffffffffffffff021916908373ffffffffffffffffffffffffffffffffffffffff16021790555060005b600960008573ffffffffffffffffffffffffffffffffffffffff1673ffffffffffffffffffffffffffffffffffffffff168152602001908152602001600020805490508110156124a35781600960008673ffffffffffffffffffffffffffffffffffffffff1673ffffffffffffffffffffffffffffffffffffffff168152602001908152602001600020828154811061229e577f4e487b7100000000000000000000000000000000000000000000000000000000600052603260045260246000fd5b9060005260206000200154141561249057600960008573ffffffffffffffffffffffffffffffffffffffff1673ffffffffffffffffffffffffffffffffffffffff1681526020019081526020016000206001600960008773ffffffffffffffffffffffffffffffffffffffff1673ffffffffffffffffffffffffffffffffffffffff1681526020019081526020016000208054905061233d919061391f565b81548110612374577f4e487b7100000000000000000000000000000000000000000000000000000000600052603260045260246000fd5b9060005260206000200154600960008673ffffffffffffffffffffffffffffffffffffffff1673ffffffffffffffffffffffffffffffffffffffff16815260200190815260200160002082815481106123f6577f4e487b7100000000000000000000000000000000000000000000000000000000600052603260045260246000fd5b9060005260206000200181905550600960008573ffffffffffffffffffffffffffffffffffffffff1673ffffffffffffffffffffffffffffffffffffffff168152602001908152602001600020805480612479577f4e487b7100000000000000000000000000000000000000000000000000000000600052603160045260246000fd5b600190038181906000526020600020016000905590555b808061249b90613a4d565b9150506121dc565b50600960008373ffffffffffffffffffffffffffffffffffffffff1673ffffffffffffffffffffffffffffffffffffffff168152602001908152602001600020819080600181540180825580915050600190039060005260206000200160009091909190915055808273ffffffffffffffffffffffffffffffffffffffff168473ffffffffffffffffffffffffffffffffffffffff167fddf252ad1be2c89b69c2b068fc378daa952ba7f163c4a11628f55a4df523b3ef60405160405180910390a4505050565b612575848484611fe8565b61258184848484612650565b6125c0576040517f08c379a00000000000000000000000000000000000000000000000000000000081526004016125b790613592565b60405180910390fd5b50505050565b600081600001549050919050565b6001816000016000828254019250508190555050565b6125f383611ddd565b612632576040517f08c379a000000000000000000000000000000000000000000000000000000000815260040161262990613672565b60405180910390fd5b8082600101908051906020019061264a92919061283a565b50505050565b60006126718473ffffffffffffffffffffffffffffffffffffffff166127e7565b156127da578373ffffffffffffffffffffffffffffffffffffffff1663150b7a0261269a611e49565b8786866040518563ffffffff1660e01b81526004016126bc94939291906134c5565b602060405180830381600087803b1580156126d657600080fd5b505af192505050801561270757506040513d601f19601f820116820180604052508101906127049190612c84565b60015b61278a573d8060008114612737576040519150601f19603f3d011682016040523d82523d6000602084013e61273c565b606091505b50600081511415612782576040517f08c379a000000000000000000000000000000000000000000000000000000000815260040161277990613592565b60405180910390fd5b805181602001fd5b63150b7a0260e01b7bffffffffffffffffffffffffffffffffffffffffffffffffffffffff1916817bffffffffffffffffffffffffffffffffffffffffffffffffffffffff1916149150506127df565b600190505b949350505050565b600080823b905060008111915050919050565b50805461280690613a1b565b6000825580601f106128185750612837565b601f01602090049060005260206000209081019061283691906128c0565b5b50565b82805461284690613a1b565b90600052602060002090601f01602090048101928261286857600085556128af565b82601f1061288157805160ff19168380011785556128af565b828001600101855582156128af579182015b828111156128ae578251825591602001919060010190612893565b5b5090506128bc91906128c0565b5090565b5b808211156128d95760008160009055506001016128c1565b5090565b60006128f06128eb846137de565b6137ad565b90508281526020810184848401111561290857600080fd5b6129138482856139d9565b509392505050565b60008135905061292a81613b34565b92915050565b60008135905061293f81613b4b565b92915050565b60008135905061295481613b62565b92915050565b60008135905061296981613b79565b92915050565b60008151905061297e81613b79565b92915050565b600082601f83011261299557600080fd5b81356129a58482602086016128dd565b91505092915050565b60008083601f8401126129c057600080fd5b8235905067ffffffffffffffff8111156129d957600080fd5b6020830191508360018202830111156129f157600080fd5b9250929050565b600081359050612a0781613b90565b92915050565b600060208284031215612a1f57600080fd5b6000612a2d8482850161291b565b91505092915050565b60008060408385031215612a4957600080fd5b6000612a578582860161291b565b9250506020612a688582860161291b565b9150509250929050565b600080600060608486031215612a8757600080fd5b6000612a958682870161291b565b9350506020612aa686828701612930565b9250506040612ab7868287016129f8565b9150509250925092565b600080600060608486031215612ad657600080fd5b6000612ae48682870161291b565b9350506020612af58682870161291b565b9250506040612b06868287016129f8565b9150509250925092565b60008060008060808587031215612b2657600080fd5b6000612b348782880161291b565b9450506020612b458782880161291b565b9350506040612b56878288016129f8565b925050606085013567ffffffffffffffff811115612b7357600080fd5b612b7f87828801612984565b91505092959194509250565b60008060408385031215612b9e57600080fd5b6000612bac8582860161291b565b9250506020612bbd85828601612945565b9150509250929050565b600080600060408486031215612bdc57600080fd5b6000612bea8682870161291b565b935050602084013567ffffffffffffffff811115612c0757600080fd5b612c13868287016129ae565b92509250509250925092565b60008060408385031215612c3257600080fd5b6000612c408582860161291b565b9250506020612c51858286016129f8565b9150509250929050565b600060208284031215612c6d57600080fd5b6000612c7b8482850161295a565b91505092915050565b600060208284031215612c9657600080fd5b6000612ca48482850161296f565b91505092915050565b600060208284031215612cbf57600080fd5b6000612ccd848285016129f8565b91505092915050565b6000612ce28383612e2c565b905092915050565b6000612cf6838361348c565b60208301905092915050565b612d0b81613953565b82525050565b6000612d1c8261382e565b612d268185613874565b935083602082028501612d388561380e565b8060005b85811015612d745784840389528151612d558582612cd6565b9450612d608361385a565b925060208a01995050600181019050612d3c565b50829750879550505050505092915050565b6000612d9182613839565b612d9b8185613885565b9350612da68361381e565b8060005b83811015612dd7578151612dbe8882612cea565b9750612dc983613867565b925050600181019050612daa565b5085935050505092915050565b612ded81613977565b82525050565b6000612dfe82613844565b612e088185613896565b9350612e188185602086016139e8565b612e2181613b23565b840191505092915050565b6000612e378261384f565b612e4181856138a7565b9350612e518185602086016139e8565b612e5a81613b23565b840191505092915050565b6000612e708261384f565b612e7a81856138b8565b9350612e8a8185602086016139e8565b612e9381613b23565b840191505092915050565b6000612eab6032836138b8565b91507f4552433732313a207472616e7366657220746f206e6f6e20455243373231526560008301527f63656976657220696d706c656d656e74657200000000000000000000000000006020830152604082019050919050565b6000612f116024836138b8565b91507f4552433732313a207472616e7366657220746f20746865207a65726f2061646460008301527f72657373000000000000000000000000000000000000000000000000000000006020830152604082019050919050565b6000612f776019836138b8565b91507f4552433732313a20617070726f766520746f2063616c6c6572000000000000006000830152602082019050919050565b6000612fb7602c836138b8565b91507f4552433732313a206f70657261746f7220717565727920666f72206e6f6e657860008301527f697374656e7420746f6b656e00000000000000000000000000000000000000006020830152604082019050919050565b600061301d6038836138b8565b91507f4552433732313a20617070726f76652063616c6c6572206973206e6f74206f7760008301527f6e6572206e6f7220617070726f76656420666f7220616c6c00000000000000006020830152604082019050919050565b6000613083602a836138b8565b91507f4552433732313a2062616c616e636520717565727920666f7220746865207a6560008301527f726f2061646472657373000000000000000000000000000000000000000000006020830152604082019050919050565b60006130e96029836138b8565b91507f4552433732313a206f776e657220717565727920666f72206e6f6e657869737460008301527f656e7420746f6b656e00000000000000000000000000000000000000000000006020830152604082019050919050565b600061314f602e836138b8565b91507f45524337323155524953746f726167653a2055524920736574206f66206e6f6e60008301527f6578697374656e7420746f6b656e0000000000000000000000000000000000006020830152604082019050919050565b60006131b56020836138b8565b91507f4552433732313a206d696e7420746f20746865207a65726f20616464726573736000830152602082019050919050565b60006131f5602c836138b8565b91507f4552433732313a20617070726f76656420717565727920666f72206e6f6e657860008301527f697374656e7420746f6b656e00000000000000000000000000000000000000006020830152604082019050919050565b600061325b6029836138b8565b91507f4552433732313a207472616e73666572206f6620746f6b656e2074686174206960008301527f73206e6f74206f776e00000000000000000000000000000000000000000000006020830152604082019050919050565b60006132c1602f836138b8565b91507f4552433732314d657461646174613a2055524920717565727920666f72206e6f60008301527f6e6578697374656e7420746f6b656e00000000000000000000000000000000006020830152604082019050919050565b60006133276021836138b8565b91507f4552433732313a20617070726f76616c20746f2063757272656e74206f776e6560008301527f72000000000000000000000000000000000000000000000000000000000000006020830152604082019050919050565b600061338d6028836138b8565b91507f6d73672e73656e646572206973204e4f5420746865206f776e6572206f66207460008301527f686520746f6b656e0000000000000000000000000000000000000000000000006020830152604082019050919050565b60006133f36031836138b8565b91507f4552433732313a207472616e736665722063616c6c6572206973206e6f74206f60008301527f776e6572206e6f7220617070726f7665640000000000000000000000000000006020830152604082019050919050565b6000613459601c836138b8565b91507f796f752063616e27742062757920796f7572206f776e20746f6b656e000000006000830152602082019050919050565b613495816139cf565b82525050565b6134a4816139cf565b82525050565b60006020820190506134bf6000830184612d02565b92915050565b60006080820190506134da6000830187612d02565b6134e76020830186612d02565b6134f4604083018561349b565b81810360608301526135068184612df3565b905095945050505050565b6000602082019050818103600083015261352b8184612d11565b905092915050565b6000602082019050818103600083015261354d8184612d86565b905092915050565b600060208201905061356a6000830184612de4565b92915050565b6000602082019050818103600083015261358a8184612e65565b905092915050565b600060208201905081810360008301526135ab81612e9e565b9050919050565b600060208201905081810360008301526135cb81612f04565b9050919050565b600060208201905081810360008301526135eb81612f6a565b9050919050565b6000602082019050818103600083015261360b81612faa565b9050919050565b6000602082019050818103600083015261362b81613010565b9050919050565b6000602082019050818103600083015261364b81613076565b9050919050565b6000602082019050818103600083015261366b816130dc565b9050919050565b6000602082019050818103600083015261368b81613142565b9050919050565b600060208201905081810360008301526136ab816131a8565b9050919050565b600060208201905081810360008301526136cb816131e8565b9050919050565b600060208201905081810360008301526136eb8161324e565b9050919050565b6000602082019050818103600083015261370b816132b4565b9050919050565b6000602082019050818103600083015261372b8161331a565b9050919050565b6000602082019050818103600083015261374b81613380565b9050919050565b6000602082019050818103600083015261376b816133e6565b9050919050565b6000602082019050818103600083015261378b8161344c565b9050919050565b60006020820190506137a7600083018461349b565b92915050565b6000604051905081810181811067ffffffffffffffff821117156137d4576137d3613af4565b5b8060405250919050565b600067ffffffffffffffff8211156137f9576137f8613af4565b5b601f19601f8301169050602081019050919050565b6000819050602082019050919050565b6000819050602082019050919050565b600081519050919050565b600081519050919050565b600081519050919050565b600081519050919050565b6000602082019050919050565b6000602082019050919050565b600082825260208201905092915050565b600082825260208201905092915050565b600082825260208201905092915050565b600082825260208201905092915050565b600082825260208201905092915050565b60006138d4826139cf565b91506138df836139cf565b9250827fffffffffffffffffffffffffffffffffffffffffffffffffffffffffffffffff0382111561391457613913613a96565b5b828201905092915050565b600061392a826139cf565b9150613935836139cf565b92508282101561394857613947613a96565b5b828203905092915050565b600061395e826139af565b9050919050565b6000613970826139af565b9050919050565b60008115159050919050565b60007fffffffff0000000000000000000000000000000000000000000000000000000082169050919050565b600073ffffffffffffffffffffffffffffffffffffffff82169050919050565b6000819050919050565b82818337600083830152505050565b60005b83811015613a065780820151818401526020810190506139eb565b83811115613a15576000848401525b50505050565b60006002820490506001821680613a3357607f821691505b60208210811415613a4757613a46613ac5565b5b50919050565b6000613a58826139cf565b91507fffffffffffffffffffffffffffffffffffffffffffffffffffffffffffffffff821415613a8b57613a8a613a96565b5b600182019050919050565b7f4e487b7100000000000000000000000000000000000000000000000000000000600052601160045260246000fd5b7f4e487b7100000000000000000000000000000000000000000000000000000000600052602260045260246000fd5b7f4e487b7100000000000000000000000000000000000000000000000000000000600052604160045260246000fd5b6000601f19601f8301169050919050565b613b3d81613953565b8114613b4857600080fd5b50565b613b5481613965565b8114613b5f57600080fd5b50565b613b6b81613977565b8114613b7657600080fd5b50565b613b8281613983565b8114613b8d57600080fd5b50565b613b99816139cf565b8114613ba457600080fd5b5056fea264697066735822122049723ae082a6a7752bc767703f07b49bd290bdb60b61def5e2fa58b1a0c9f87864736f6c63430008000033",
  "immutableReferences": {},
  "source": "// SPDX-License-Identifier: MIT\n\npragma solidity ^0.8.0;\n\nimport \"./IERC721.sol\";\nimport \"./IERC721Receiver.sol\";\nimport \"./IERC721Metadata.sol\";\nimport \"./Address.sol\";\nimport \"./SafeMath.sol\";\nimport \"./Context.sol\";\nimport \"./Strings.sol\";\nimport \"./ERC165.sol\";\nimport \"./Counters.sol\";\n\n/**\n * @dev Implementation of https://eips.ethereum.org/EIPS/eip-721[ERC721] Non-Fungible Token Standard, including\n * the Metadata extension, but not including the Enumerable extension, which is available separately as\n * {ERC721Enumerable}.\n */\n\ncontract ERC721 is Context, ERC165, IERC721, IERC721Metadata {\n    using Address for address;\n    using Strings for uint256;\n    using Counters for Counters.Counter;\n\n    Counters.Counter private _tokenIds;\n    // Token name\n    string private _name;\n\n    // Token symbol\n    string private _symbol;\n\n    // Mapping from token ID to owner address\n    mapping(uint256 => address) private _owners;\n\n    // Mapping owner address to token count\n    mapping(address => uint256) private _balances;\n\n    // Mapping from token ID to approved address\n    mapping(uint256 => address) private _tokenApprovals;\n\n    // Mapping from owner to operator approvals\n    mapping(address => mapping(address => bool)) private _operatorApprovals;\n\n    //ipfshash  \n    mapping(uint256 => asset) private _tokenURIs;\n\n    struct asset {\n        uint tokenIdListIndex;\n        string ipfsHash;\n    }\n\n    uint256 [] private _tokenIdList;\n\n    mapping(address => uint256 [] ) private _myAllTokenIds;\n\n    /**\n     * @dev Initializes the contract by setting a `name` and a `symbol` to the token collection.\n     */\n    constructor(string memory name_, string memory symbol_) {\n        _name = name_;\n        _symbol = symbol_;\n    }\n\n    /**\n     * @dev See {IERC165-supportsInterface}.\n     */\n    function supportsInterface(bytes4 interfaceId) public view virtual override(ERC165, IERC165) returns (bool) {\n        return\n            interfaceId == type(IERC721).interfaceId ||\n            interfaceId == type(IERC721Metadata).interfaceId ||\n            super.supportsInterface(interfaceId);\n    }\n\n    /**\n     * @dev See {IERC721-balanceOf}.\n     */\n    function balanceOf(address owner) public view virtual override returns (uint256) {\n        require(owner != address(0), \"ERC721: balance query for the zero address\");\n        return _balances[owner];\n    }\n\n    /**\n     * @dev See {IERC721-ownerOf}.\n     */\n    function ownerOf(uint256 tokenId) public view virtual override returns (address) {\n        address owner = _owners[tokenId];\n        require(owner != address(0), \"ERC721: owner query for nonexistent token\");\n        return owner;\n    }\n    /**\n     * @dev See {IERC721Metadata-name}.\n     */\n    function name() public view virtual override returns (string memory) {\n        return _name;\n    }\n\n    /**\n     * @dev See {IERC721Metadata-symbol}.\n     */\n    function symbol() public view virtual override returns (string memory) {\n        return _symbol;\n    }\n\n    /**\n     * @dev See {IERC721Metadata-tokenURI}.\n     */\n    function tokenURI(uint256 tokenId) public view virtual override returns (string memory) {\n        require(_exists(tokenId), \"ERC721Metadata: URI query for nonexistent token\");\n\n        string memory ipfsHashAddr = _tokenURIs[tokenId].ipfsHash;\n        /*\n        string memory base = _baseURI();\n        \n        if (bytes(base).length == 0) {\n            return ipfsHashAddr;\n        }\n        // If both are set, concatenate the baseURI and tokenURI (via abi.encodePacked).\n        if (bytes(ipfsHashAddr).length > 0) {\n            return string(abi.encodePacked(base, ipfsHashAddr));\n        }\n\n        return bytes(base).length > 0 ? string(abi.encodePacked(base, tokenId.toString())) : \"\";\n\n        */\n\n        return ipfsHashAddr;\n    }   \n\n    function getAllTokensHash() public view returns (string [] memory) {\n        string [] memory result = new string[](_tokenIdList.length);\n\n        for(uint i = 0 ; i < _tokenIdList.length ; i++) {\n            string memory ipfsHashAddr = _tokenURIs[_tokenIdList[i]].ipfsHash;\n            result[i] = ipfsHashAddr;\n        }\n\n        return result;\n    }\n\n    function getMyAllTokenids(address owner) public view returns (uint [] memory) {\n        return _myAllTokenIds[owner];\n    }\n\n    function getMyAllTokensHash(address owner) public view returns (string [] memory) {\n        string [] memory result = new string[](_myAllTokenIds[owner].length);\n\n        for(uint i = 0 ; i < _myAllTokenIds[owner].length ; i++) {\n            string memory ipfsHashAddr = _tokenURIs[_myAllTokenIds[owner][i]].ipfsHash;\n            result[i] = ipfsHashAddr;\n        }\n\n        return result;\n    }\n\n    function getAllEnableTokenIds() public view returns (uint [] memory) {\n        return _tokenIdList;\n    }\n\n\n    /**\n     * @dev Base URI for computing {tokenURI}. If set, the resulting URI for each\n     * token will be the concatenation of the `baseURI` and the `tokenId`. Empty\n     * by default, can be overriden in child contracts.\n     */\n\n    function _baseURI() internal view virtual returns (string memory) {\n        return \"https://ipfs.io/ipfs/\";\n    }\n\n    /**\n     * @dev See {IERC721-approve}.\n     */\n\n    function approve(address to, uint256 tokenId) public virtual override {\n        address owner = ERC721.ownerOf(tokenId);\n        require(to != owner, \"ERC721: approval to current owner\");\n\n        require(\n            _msgSender() == owner || isApprovedForAll(owner, _msgSender()),\n            \"ERC721: approve caller is not owner nor approved for all\"\n        );\n\n        _approve(to, tokenId);\n    }\n\n    /**\n     * @dev See {IERC721-getApproved}.\n     */\n    function getApproved(uint256 tokenId) public view virtual override returns (address) {\n        require(_exists(tokenId), \"ERC721: approved query for nonexistent token\");\n\n        return _tokenApprovals[tokenId];\n    }\n\n    /**\n     * @dev See {IERC721-setApprovalForAll}.\n     */\n    function setApprovalForAll(address operator, bool approved) public virtual override {\n        require(operator != _msgSender(), \"ERC721: approve to caller\");\n\n        _operatorApprovals[_msgSender()][operator] = approved;\n        emit ApprovalForAll(_msgSender(), operator, approved);\n    }\n\n    /**\n     * @dev See {IERC721-isApprovedForAll}.\n     */\n\n    function isApprovedForAll(address owner, address operator) public view virtual override returns (bool) {\n        return _operatorApprovals[owner][operator];\n    }\n\n    /**\n     * @dev See {IERC721-transferFrom}.\n     */\n\n    function transferFrom(\n        address from,\n        address to,\n        uint256 tokenId\n    ) public virtual override {\n        //solhint-disable-next-line max-line-length\n        require(_isApprovedOrOwner(_msgSender(), tokenId), \"ERC721: transfer caller is not owner nor approved\");\n\n        _transfer(from, to, tokenId);\n    }\n\n    /**\n     * @dev See {IERC721-safeTransferFrom}.\n     */\n\n    function safeTransferFrom(\n        address from,\n        address to,\n        uint256 tokenId\n    ) public virtual override{\n        safeTransferFrom(from, to, tokenId, \"\");\n    }\n\n    /**\n     * @dev See {IERC721-safeTransferFrom}.\n     */\n\n    function safeTransferFrom(\n        address from,\n        address to,\n        uint256 tokenId,\n        bytes memory _data\n    ) public virtual override {\n        require(_isApprovedOrOwner(_msgSender(), tokenId), \"ERC721: transfer caller is not owner nor approved\");\n        _safeTransfer(from, to, tokenId, _data);\n    }\n\n    /* \n     * @dev Safely transfers `tokenId` token from `from` to `to`, checking first that contract recipients\n     * are aware of the ERC721 protocol to prevent tokens from being forever locked.\n     *\n     * `_data` is additional data, it has no specified format and it is sent in call to `to`.\n     *\n     * This internal function is equivalent to {safeTransferFrom}, and can be used to e.g.\n     * implement alternative mechanisms to perform token transfer, such as signature-based.\n     *\n     * Requirements:\n     *\n     * - `from` cannot be the zero address.\n     * - `to` cannot be the zero address.\n     * - `tokenId` token must exist and be owned by `from`.\n     * - If `to` refers to a smart contract, it must implement {IERC721Receiver-onERC721Received}, which is called upon a safe transfer.\n     *\n     * Emits a {Transfer} event.\n     */\n\n    function _safeTransfer(\n        address from,\n        address to,\n        uint256 tokenId,\n        bytes memory _data\n    ) internal virtual {\n        _transfer(from, to, tokenId);\n        require(_checkOnERC721Received(from, to, tokenId, _data), \"ERC721: transfer to non ERC721Receiver implementer\");\n    }\n\n    /**\n     * @dev Returns whether `tokenId` exists.\n     *\n     * Tokens can be managed by their owner or approved accounts via {approve} or {setApprovalForAll}.\n     *\n     * Tokens start existing when they are minted (`_mint`),\n     * and stop existing when they are burned (`_burn`).\n     */\n    function _exists(uint256 tokenId) internal view virtual returns (bool) {\n        return _owners[tokenId] != address(0);\n    }\n\n    /**\n     * @dev Returns whether `spender` is allowed to manage `tokenId`.\n     *\n     * Requirements:\n     *\n     * - `tokenId` must exist.\n     */\n    function _isApprovedOrOwner(address spender, uint256 tokenId) internal view virtual returns (bool) {\n        require(_exists(tokenId), \"ERC721: operator query for nonexistent token\");\n        address owner = ERC721.ownerOf(tokenId);\n        return (spender == owner || getApproved(tokenId) == spender || isApprovedForAll(owner, spender));\n    }\n\n    function mint(address to, string calldata ipfsHash) external returns (uint256) {\n        require(to != address(0), \"ERC721: mint to the zero address\");\n        require(msg.sender == to);\n\n        uint256 tokenId = _tokenIds.current();\n        _tokenIds.increment();\n\n        asset storage newAsset = _tokenURIs[tokenId];\n\n        _owners[tokenId] = msg.sender;\n        _balances[to] += 1;\n        _myAllTokenIds[to].push(tokenId);\n\n        _setTokenURI(tokenId, newAsset, ipfsHash);\n        _tokenIdList.push(tokenId);\n        newAsset.tokenIdListIndex = _tokenIdList.length - 1;\n\n        emit Transfer(address(0), to, tokenId);\n        return _tokenIds.current();\n    }\n\n    function _setTokenURI(uint256 tokenId, asset storage newAsset, string memory ipfsHash) internal virtual {\n        require(_exists(tokenId), \"ERC721URIStorage: URI set of nonexistent token\");\n        newAsset.ipfsHash = ipfsHash;\n    }\n\n    /**\n     * @dev Destroys `tokenId`.\n     * The approval is cleared when the token is burned.\n     *\n     * Requirements:\n     *\n     * - `tokenId` must exist.\n     *\n     * Emits a {Transfer} event.\n     */\n    function purchase(address buyer, address payable seller, uint256 tokenId) public payable {\n        require(msg.sender == buyer);\n        require(msg.sender != seller, \"you can't buy your own token\");\n        require(seller == ownerOf(tokenId));\n\n        _approve(buyer, tokenId);\n\n        seller.transfer(msg.value);\n\n        safeTransferFrom(seller, buyer, tokenId);\n    }\n\n    function burn(uint256 tokenId) external {\n        require(_exists(tokenId), \"ERC721: operator query for nonexistent token\");\n        address owner = ERC721.ownerOf(tokenId);\n        require(owner == msg.sender, \"msg.sender is NOT the owner of the token\");\n\n        // Clear approvals\n        _approve(address(0), tokenId);\n\n        _balances[owner] -= 1;\n        delete _owners[tokenId];\n\n        for(uint i = 0 ; i < _myAllTokenIds[owner].length ; i++){\n            if(_myAllTokenIds[owner][i] == tokenId) {\n                _myAllTokenIds[owner][i] = _myAllTokenIds[owner][_myAllTokenIds[owner].length - 1];\n                _myAllTokenIds[owner].pop();\n                return;\n            }\n        }\n\n        uint tokenLastIndex = _tokenIdList.length - 1;\n        uint tokenLastIndexItem = _tokenIdList[tokenLastIndex];\n        uint burnableTokenIndex = _tokenURIs[tokenId].tokenIdListIndex;\n\n        _tokenIdList[burnableTokenIndex] = tokenLastIndexItem;\n\n        _tokenIdList.pop();\n        _tokenURIs[tokenLastIndexItem].tokenIdListIndex = burnableTokenIndex;\n\n        delete _tokenURIs[tokenId];\n\n        emit Transfer(owner, address(0), tokenId);\n    }\n\n    /**\n     * @dev Transfers `tokenId` from `from` to `to`.\n     *  As opposed to {transferFrom}, this imposes no restrictions on msg.sender.\n     *\n     * Requirements:\n     *\n     * - `to` cannot be the zero address.\n     * - `tokenId` token must be owned by `from`.\n     *\n     * Emits a {Transfer} event.\n     */\n    function _transfer(\n        address from,\n        address to,\n        uint256 tokenId\n    ) internal virtual {\n        require(ERC721.ownerOf(tokenId) == from, \"ERC721: transfer of token that is not own\");\n        require(to != address(0), \"ERC721: transfer to the zero address\");\n\n        // Clear approvals from the previous owner\n        _approve(address(0), tokenId);\n\n        _balances[from] -= 1;\n        _balances[to] += 1;\n        _owners[tokenId] = to;\n\n        for(uint i = 0 ; i < _myAllTokenIds[from].length ; i++){\n            if(_myAllTokenIds[from][i] == tokenId) {\n                _myAllTokenIds[from][i] = _myAllTokenIds[from][_myAllTokenIds[from].length - 1];\n                _myAllTokenIds[from].pop();\n            }\n        }\n\n        _myAllTokenIds[to].push(tokenId);\n\n        emit Transfer(from, to, tokenId);\n    }\n\n    /**\n     * @dev Approve `to` to operate on `tokenId`\n     *\n     * Emits a {Approval} event.\n     */\n    function _approve(address to, uint256 tokenId) internal virtual {\n        _tokenApprovals[tokenId] = to;\n        emit Approval(ERC721.ownerOf(tokenId), to, tokenId);\n    }\n\n    /**\n     * @dev Internal function to invoke {IERC721Receiver-onERC721Received} on a target address.\n     * The call is not executed if the target address is not a contract.\n     *\n     * @param from address representing the previous owner of the given token ID\n     * @param to target address that will receive the tokens\n     * @param tokenId uint256 ID of the token to be transferred\n     * @param _data bytes optional data to send along with the call\n     * @return bool whether the call correctly returned the expected magic value\n     */\n    function _checkOnERC721Received(\n        address from,\n        address to,\n        uint256 tokenId,\n        bytes memory _data\n    ) private returns (bool) {\n        if (to.isContract()) {\n            try IERC721Receiver(to).onERC721Received(_msgSender(), from, tokenId, _data) returns (bytes4 retval) {\n                return retval == IERC721Receiver.onERC721Received.selector;\n            } catch (bytes memory reason) {\n                if (reason.length == 0) {\n                    revert(\"ERC721: transfer to non ERC721Receiver implementer\");\n                } else {\n                    assembly {\n                        revert(add(32, reason), mload(reason))\n                    }\n                }\n            }\n        } else {\n            return true;\n        }\n    }\n\n}\n\n\n",
  "sourcePath": "C:/Users/qjarl/Desktop/itm_dapp/contracts/ERC721.sol",
  "compiler": {
    "name": "solc",
    "version": "0.8.0+commit.c7dfd78e.Emscripten.clang"
  },
  "schemaVersion": "3.4.1",
  "updatedAt": "2021-11-13T06:57:56.182Z",
  "networkType": "ethereum",
  "devdoc": {
    "details": "Implementation of https://eips.ethereum.org/EIPS/eip-721[ERC721] Non-Fungible Token Standard, including the Metadata extension, but not including the Enumerable extension, which is available separately as {ERC721Enumerable}.",
    "kind": "dev",
    "methods": {
      "approve(address,uint256)": {
        "details": "See {IERC721-approve}."
      },
      "balanceOf(address)": {
        "details": "See {IERC721-balanceOf}."
      },
      "constructor": {
        "details": "Initializes the contract by setting a `name` and a `symbol` to the token collection."
      },
      "getApproved(uint256)": {
        "details": "See {IERC721-getApproved}."
      },
      "isApprovedForAll(address,address)": {
        "details": "See {IERC721-isApprovedForAll}."
      },
      "name()": {
        "details": "See {IERC721Metadata-name}."
      },
      "ownerOf(uint256)": {
        "details": "See {IERC721-ownerOf}."
      },
      "purchase(address,address,uint256)": {
        "details": "Destroys `tokenId`. The approval is cleared when the token is burned. Requirements: - `tokenId` must exist. Emits a {Transfer} event."
      },
      "safeTransferFrom(address,address,uint256)": {
        "details": "See {IERC721-safeTransferFrom}."
      },
      "safeTransferFrom(address,address,uint256,bytes)": {
        "details": "See {IERC721-safeTransferFrom}."
      },
      "setApprovalForAll(address,bool)": {
        "details": "See {IERC721-setApprovalForAll}."
      },
      "supportsInterface(bytes4)": {
        "details": "See {IERC165-supportsInterface}."
      },
      "symbol()": {
        "details": "See {IERC721Metadata-symbol}."
      },
      "tokenURI(uint256)": {
        "details": "See {IERC721Metadata-tokenURI}."
      },
      "transferFrom(address,address,uint256)": {
        "details": "See {IERC721-transferFrom}."
      }
    },
    "version": 1
  },
  "userdoc": {
    "kind": "user",
    "methods": {},
    "version": 1
  }
}