{
  "contractName": "ERC721",
  "abi": [
    {
      "inputs": [
        {
          "internalType": "string",
          "name": "name_",
          "type": "string"
        },
        {
          "internalType": "string",
          "name": "symbol_",
          "type": "string"
        }
      ],
      "stateMutability": "nonpayable",
      "type": "constructor"
    },
    {
      "anonymous": false,
      "inputs": [
        {
          "indexed": true,
          "internalType": "address",
          "name": "owner",
          "type": "address"
        },
        {
          "indexed": true,
          "internalType": "address",
          "name": "approved",
          "type": "address"
        },
        {
          "indexed": true,
          "internalType": "uint256",
          "name": "tokenId",
          "type": "uint256"
        }
      ],
      "name": "Approval",
      "type": "event"
    },
    {
      "anonymous": false,
      "inputs": [
        {
          "indexed": true,
          "internalType": "address",
          "name": "owner",
          "type": "address"
        },
        {
          "indexed": true,
          "internalType": "address",
          "name": "operator",
          "type": "address"
        },
        {
          "indexed": false,
          "internalType": "bool",
          "name": "approved",
          "type": "bool"
        }
      ],
      "name": "ApprovalForAll",
      "type": "event"
    },
    {
      "anonymous": false,
      "inputs": [
        {
          "indexed": true,
          "internalType": "address",
          "name": "from",
          "type": "address"
        },
        {
          "indexed": true,
          "internalType": "address",
          "name": "to",
          "type": "address"
        },
        {
          "indexed": true,
          "internalType": "uint256",
          "name": "tokenId",
          "type": "uint256"
        }
      ],
      "name": "Transfer",
      "type": "event"
    },
    {
      "inputs": [
        {
          "internalType": "bytes4",
          "name": "interfaceId",
          "type": "bytes4"
        }
      ],
      "name": "supportsInterface",
      "outputs": [
        {
          "internalType": "bool",
          "name": "",
          "type": "bool"
        }
      ],
      "stateMutability": "view",
      "type": "function",
      "constant": true
    },
    {
      "inputs": [
        {
          "internalType": "address",
          "name": "owner",
          "type": "address"
        }
      ],
      "name": "balanceOf",
      "outputs": [
        {
          "internalType": "uint256",
          "name": "",
          "type": "uint256"
        }
      ],
      "stateMutability": "view",
      "type": "function",
      "constant": true
    },
    {
      "inputs": [
        {
          "internalType": "uint256",
          "name": "tokenId",
          "type": "uint256"
        }
      ],
      "name": "ownerOf",
      "outputs": [
        {
          "internalType": "address",
          "name": "",
          "type": "address"
        }
      ],
      "stateMutability": "view",
      "type": "function",
      "constant": true
    },
    {
      "inputs": [],
      "name": "name",
      "outputs": [
        {
          "internalType": "string",
          "name": "",
          "type": "string"
        }
      ],
      "stateMutability": "view",
      "type": "function",
      "constant": true
    },
    {
      "inputs": [],
      "name": "symbol",
      "outputs": [
        {
          "internalType": "string",
          "name": "",
          "type": "string"
        }
      ],
      "stateMutability": "view",
      "type": "function",
      "constant": true
    },
    {
      "inputs": [
        {
          "internalType": "uint256",
          "name": "tokenId",
          "type": "uint256"
        }
      ],
      "name": "tokenURI",
      "outputs": [
        {
          "internalType": "string",
          "name": "",
          "type": "string"
        }
      ],
      "stateMutability": "view",
      "type": "function",
      "constant": true
    },
    {
      "inputs": [],
      "name": "getAllTokensHash",
      "outputs": [
        {
          "internalType": "string[]",
          "name": "",
          "type": "string[]"
        }
      ],
      "stateMutability": "view",
      "type": "function",
      "constant": true
    },
    {
      "inputs": [
        {
          "internalType": "address",
          "name": "owner",
          "type": "address"
        }
      ],
      "name": "getMyAllTokenids",
      "outputs": [
        {
          "internalType": "uint256[]",
          "name": "",
          "type": "uint256[]"
        }
      ],
      "stateMutability": "view",
      "type": "function",
      "constant": true
    },
    {
      "inputs": [
        {
          "internalType": "address",
          "name": "owner",
          "type": "address"
        }
      ],
      "name": "getMyAllTokensHash",
      "outputs": [
        {
          "internalType": "string[]",
          "name": "",
          "type": "string[]"
        }
      ],
      "stateMutability": "view",
      "type": "function",
      "constant": true
    },
    {
      "inputs": [],
      "name": "getAllEnableTokenIds",
      "outputs": [
        {
          "internalType": "uint256[]",
          "name": "",
          "type": "uint256[]"
        }
      ],
      "stateMutability": "view",
      "type": "function",
      "constant": true
    },
    {
      "inputs": [
        {
          "internalType": "address",
          "name": "to",
          "type": "address"
        },
        {
          "internalType": "uint256",
          "name": "tokenId",
          "type": "uint256"
        }
      ],
      "name": "approve",
      "outputs": [],
      "stateMutability": "nonpayable",
      "type": "function"
    },
    {
      "inputs": [
        {
          "internalType": "uint256",
          "name": "tokenId",
          "type": "uint256"
        }
      ],
      "name": "getApproved",
      "outputs": [
        {
          "internalType": "address",
          "name": "",
          "type": "address"
        }
      ],
      "stateMutability": "view",
      "type": "function",
      "constant": true
    },
    {
      "inputs": [
        {
          "internalType": "address",
          "name": "operator",
          "type": "address"
        },
        {
          "internalType": "bool",
          "name": "approved",
          "type": "bool"
        }
      ],
      "name": "setApprovalForAll",
      "outputs": [],
      "stateMutability": "nonpayable",
      "type": "function"
    },
    {
      "inputs": [
        {
          "internalType": "address",
          "name": "owner",
          "type": "address"
        },
        {
          "internalType": "address",
          "name": "operator",
          "type": "address"
        }
      ],
      "name": "isApprovedForAll",
      "outputs": [
        {
          "internalType": "bool",
          "name": "",
          "type": "bool"
        }
      ],
      "stateMutability": "view",
      "type": "function",
      "constant": true
    },
    {
      "inputs": [
        {
          "internalType": "address",
          "name": "from",
          "type": "address"
        },
        {
          "internalType": "address",
          "name": "to",
          "type": "address"
        },
        {
          "internalType": "uint256",
          "name": "tokenId",
          "type": "uint256"
        }
      ],
      "name": "transferFrom",
      "outputs": [],
      "stateMutability": "nonpayable",
      "type": "function"
    },
    {
      "inputs": [
        {
          "internalType": "address",
          "name": "from",
          "type": "address"
        },
        {
          "internalType": "address",
          "name": "to",
          "type": "address"
        },
        {
          "internalType": "uint256",
          "name": "tokenId",
          "type": "uint256"
        }
      ],
      "name": "safeTransferFrom",
      "outputs": [],
      "stateMutability": "nonpayable",
      "type": "function"
    },
    {
      "inputs": [
        {
          "internalType": "address",
          "name": "from",
          "type": "address"
        },
        {
          "internalType": "address",
          "name": "to",
          "type": "address"
        },
        {
          "internalType": "uint256",
          "name": "tokenId",
          "type": "uint256"
        },
        {
          "internalType": "bytes",
          "name": "_data",
          "type": "bytes"
        }
      ],
      "name": "safeTransferFrom",
      "outputs": [],
      "stateMutability": "nonpayable",
      "type": "function"
    },
    {
      "inputs": [
        {
          "internalType": "address",
          "name": "to",
          "type": "address"
        },
        {
          "internalType": "string",
          "name": "ipfsHash",
          "type": "string"
        }
      ],
      "name": "mint",
      "outputs": [
        {
          "internalType": "uint256",
          "name": "",
          "type": "uint256"
        }
      ],
      "stateMutability": "nonpayable",
      "type": "function"
    },
    {
      "inputs": [
        {
          "internalType": "uint256",
          "name": "tokenId",
          "type": "uint256"
        }
      ],
      "name": "burn",
      "outputs": [],
      "stateMutability": "nonpayable",
      "type": "function"
    }
  ],
  "bytecode": "0x60806040523480156200001157600080fd5b5060405162003bde38038062003bde833981810160405281019062000037919062000193565b81600190805190602001906200004f92919062000071565b5080600290805190602001906200006892919062000071565b50505062000337565b8280546200007f90620002a3565b90600052602060002090601f016020900481019282620000a35760008555620000ef565b82601f10620000be57805160ff1916838001178555620000ef565b82800160010185558215620000ef579182015b82811115620000ee578251825591602001919060010190620000d1565b5b509050620000fe919062000102565b5090565b5b808211156200011d57600081600090555060010162000103565b5090565b60006200013862000132846200023a565b62000206565b9050828152602081018484840111156200015157600080fd5b6200015e8482856200026d565b509392505050565b600082601f8301126200017857600080fd5b81516200018a84826020860162000121565b91505092915050565b60008060408385031215620001a757600080fd5b600083015167ffffffffffffffff811115620001c257600080fd5b620001d08582860162000166565b925050602083015167ffffffffffffffff811115620001ee57600080fd5b620001fc8582860162000166565b9150509250929050565b6000604051905081810181811067ffffffffffffffff8211171562000230576200022f62000308565b5b8060405250919050565b600067ffffffffffffffff82111562000258576200025762000308565b5b601f19601f8301169050602081019050919050565b60005b838110156200028d57808201518184015260208101905062000270565b838111156200029d576000848401525b50505050565b60006002820490506001821680620002bc57607f821691505b60208210811415620002d357620002d2620002d9565b5b50919050565b7f4e487b7100000000000000000000000000000000000000000000000000000000600052602260045260246000fd5b7f4e487b7100000000000000000000000000000000000000000000000000000000600052604160045260246000fd5b61389780620003476000396000f3fe608060405234801561001057600080fd5b50600436106101215760003560e01c80634967bb35116100ad578063a22cb46511610071578063a22cb4651461032e578063b88d4fde1461034a578063c87b56dd14610366578063d0def52114610396578063e985e9c5146103c657610121565b80634967bb35146102745780636352211e1461029257806370a08231146102c257806395d89b41146102f2578063990a72cb1461031057610121565b80631fe9c062116100f45780631fe9c062146101c057806323b872dd146101f05780632a4034d71461020c57806342842e0e1461023c57806342966c681461025857610121565b806301ffc9a71461012657806306fdde0314610156578063081812fc14610174578063095ea7b3146101a4575b600080fd5b610140600480360381019061013b919061299e565b6103f6565b60405161014d9190613258565b60405180910390f35b61015e6104d8565b60405161016b9190613273565b60405180910390f35b61018e600480360381019061018991906129f0565b61056a565b60405161019b91906131ad565b60405180910390f35b6101be60048036038101906101b99190612962565b6105ef565b005b6101da60048036038101906101d5919061279f565b610707565b6040516101e79190613236565b60405180910390f35b61020a60048036038101906102059190612804565b61079e565b005b6102266004803603810190610221919061279f565b6107fe565b6040516102339190613214565b60405180910390f35b61025660048036038101906102519190612804565b610a8e565b005b610272600480360381019061026d91906129f0565b610aae565b005b61027c611098565b6040516102899190613214565b60405180910390f35b6102ac60048036038101906102a791906129f0565b61126f565b6040516102b991906131ad565b60405180910390f35b6102dc60048036038101906102d7919061279f565b611321565b6040516102e99190613475565b60405180910390f35b6102fa6113d9565b6040516103079190613273565b60405180910390f35b61031861146b565b6040516103259190613236565b60405180910390f35b610348600480360381019061034391906128ce565b6114c3565b005b610364600480360381019061035f9190612853565b611644565b005b610380600480360381019061037b91906129f0565b6116a6565b60405161038d9190613273565b60405180910390f35b6103b060048036038101906103ab919061290a565b61179c565b6040516103bd9190613475565b60405180910390f35b6103e060048036038101906103db91906127c8565b611a86565b6040516103ed9190613258565b60405180910390f35b60007f80ac58cd000000000000000000000000000000000000000000000000000000007bffffffffffffffffffffffffffffffffffffffffffffffffffffffff1916827bffffffffffffffffffffffffffffffffffffffffffffffffffffffff191614806104c157507f5b5e139f000000000000000000000000000000000000000000000000000000007bffffffffffffffffffffffffffffffffffffffffffffffffffffffff1916827bffffffffffffffffffffffffffffffffffffffffffffffffffffffff1916145b806104d157506104d082611b1a565b5b9050919050565b6060600180546104e7906136ec565b80601f0160208091040260200160405190810160405280929190818152602001828054610513906136ec565b80156105605780601f1061053557610100808354040283529160200191610560565b820191906000526020600020905b81548152906001019060200180831161054357829003601f168201915b5050505050905090565b600061057582611b84565b6105b4576040517f08c379a00000000000000000000000000000000000000000000000000000000081526004016105ab906133b5565b60405180910390fd5b6005600083815260200190815260200160002060009054906101000a900473ffffffffffffffffffffffffffffffffffffffff169050919050565b60006105fa8261126f565b90508073ffffffffffffffffffffffffffffffffffffffff168373ffffffffffffffffffffffffffffffffffffffff16141561066b576040517f08c379a000000000000000000000000000000000000000000000000000000000815260040161066290613415565b60405180910390fd5b8073ffffffffffffffffffffffffffffffffffffffff1661068a611bf0565b73ffffffffffffffffffffffffffffffffffffffff1614806106b957506106b8816106b3611bf0565b611a86565b5b6106f8576040517f08c379a00000000000000000000000000000000000000000000000000000000081526004016106ef90613315565b60405180910390fd5b6107028383611bf8565b505050565b6060600960008373ffffffffffffffffffffffffffffffffffffffff1673ffffffffffffffffffffffffffffffffffffffff16815260200190815260200160002080548060200260200160405190810160405280929190818152602001828054801561079257602002820191906000526020600020905b81548152602001906001019080831161077e575b50505050509050919050565b6107af6107a9611bf0565b82611cb1565b6107ee576040517f08c379a00000000000000000000000000000000000000000000000000000000081526004016107e590613455565b60405180910390fd5b6107f9838383611d8f565b505050565b60606000600960008473ffffffffffffffffffffffffffffffffffffffff1673ffffffffffffffffffffffffffffffffffffffff1681526020019081526020016000208054905067ffffffffffffffff811115610884577f4e487b7100000000000000000000000000000000000000000000000000000000600052604160045260246000fd5b6040519080825280602002602001820160405280156108b757816020015b60608152602001906001900390816108a25790505b50905060005b600960008573ffffffffffffffffffffffffffffffffffffffff1673ffffffffffffffffffffffffffffffffffffffff16815260200190815260200160002080549050811015610a8457600060076000600960008873ffffffffffffffffffffffffffffffffffffffff1673ffffffffffffffffffffffffffffffffffffffff1681526020019081526020016000208481548110610984577f4e487b7100000000000000000000000000000000000000000000000000000000600052603260045260246000fd5b9060005260206000200154815260200190815260200160002060010180546109ab906136ec565b80601f01602080910402602001604051908101604052809291908181526020018280546109d7906136ec565b8015610a245780601f106109f957610100808354040283529160200191610a24565b820191906000526020600020905b815481529060010190602001808311610a0757829003601f168201915b5050505050905080838381518110610a65577f4e487b7100000000000000000000000000000000000000000000000000000000600052603260045260246000fd5b6020026020010181905250508080610a7c9061371e565b9150506108bd565b5080915050919050565b610aa983838360405180602001604052806000815250611644565b505050565b610ab781611b84565b610af6576040517f08c379a0000000000000000000000000000000000000000000000000000000008152600401610aed906132f5565b60405180910390fd5b6000610b018261126f565b90503373ffffffffffffffffffffffffffffffffffffffff168173ffffffffffffffffffffffffffffffffffffffff1614610b71576040517f08c379a0000000000000000000000000000000000000000000000000000000008152600401610b6890613435565b60405180910390fd5b610b7c600083611bf8565b6001600460008373ffffffffffffffffffffffffffffffffffffffff1673ffffffffffffffffffffffffffffffffffffffff1681526020019081526020016000206000828254610bcc9190613602565b925050819055506003600083815260200190815260200160002060006101000a81549073ffffffffffffffffffffffffffffffffffffffff021916905560005b600960008373ffffffffffffffffffffffffffffffffffffffff1673ffffffffffffffffffffffffffffffffffffffff16815260200190815260200160002080549050811015610ed95782600960008473ffffffffffffffffffffffffffffffffffffffff1673ffffffffffffffffffffffffffffffffffffffff1681526020019081526020016000208281548110610cce577f4e487b7100000000000000000000000000000000000000000000000000000000600052603260045260246000fd5b90600052602060002001541415610ec657600960008373ffffffffffffffffffffffffffffffffffffffff1673ffffffffffffffffffffffffffffffffffffffff1681526020019081526020016000206001600960008573ffffffffffffffffffffffffffffffffffffffff1673ffffffffffffffffffffffffffffffffffffffff16815260200190815260200160002080549050610d6d9190613602565b81548110610da4577f4e487b7100000000000000000000000000000000000000000000000000000000600052603260045260246000fd5b9060005260206000200154600960008473ffffffffffffffffffffffffffffffffffffffff1673ffffffffffffffffffffffffffffffffffffffff1681526020019081526020016000208281548110610e26577f4e487b7100000000000000000000000000000000000000000000000000000000600052603260045260246000fd5b9060005260206000200181905550600960008373ffffffffffffffffffffffffffffffffffffffff1673ffffffffffffffffffffffffffffffffffffffff168152602001908152602001600020805480610ea9577f4e487b7100000000000000000000000000000000000000000000000000000000600052603160045260246000fd5b600190038181906000526020600020016000905590555050611095565b8080610ed19061371e565b915050610c0c565b5060006001600880549050610eee9190613602565b9050600060088281548110610f2c577f4e487b7100000000000000000000000000000000000000000000000000000000600052603260045260246000fd5b906000526020600020015490506000600760008681526020019081526020016000206000015490508160088281548110610f8f577f4e487b7100000000000000000000000000000000000000000000000000000000600052603260045260246000fd5b90600052602060002001819055506008805480610fd5577f4e487b7100000000000000000000000000000000000000000000000000000000600052603160045260246000fd5b600190038181906000526020600020016000905590558060076000848152602001908152602001600020600001819055506007600086815260200190815260200160002060008082016000905560018201600061103291906125a1565b505084600073ffffffffffffffffffffffffffffffffffffffff168573ffffffffffffffffffffffffffffffffffffffff167fddf252ad1be2c89b69c2b068fc378daa952ba7f163c4a11628f55a4df523b3ef60405160405180910390a4505050505b50565b6060600060088054905067ffffffffffffffff8111156110e1577f4e487b7100000000000000000000000000000000000000000000000000000000600052604160045260246000fd5b60405190808252806020026020018201604052801561111457816020015b60608152602001906001900390816110ff5790505b50905060005b6008805490508110156112675760006007600060088481548110611167577f4e487b7100000000000000000000000000000000000000000000000000000000600052603260045260246000fd5b90600052602060002001548152602001908152602001600020600101805461118e906136ec565b80601f01602080910402602001604051908101604052809291908181526020018280546111ba906136ec565b80156112075780601f106111dc57610100808354040283529160200191611207565b820191906000526020600020905b8154815290600101906020018083116111ea57829003601f168201915b5050505050905080838381518110611248577f4e487b7100000000000000000000000000000000000000000000000000000000600052603260045260246000fd5b602002602001018190525050808061125f9061371e565b91505061111a565b508091505090565b6000806003600084815260200190815260200160002060009054906101000a900473ffffffffffffffffffffffffffffffffffffffff169050600073ffffffffffffffffffffffffffffffffffffffff168173ffffffffffffffffffffffffffffffffffffffff161415611318576040517f08c379a000000000000000000000000000000000000000000000000000000000815260040161130f90613355565b60405180910390fd5b80915050919050565b60008073ffffffffffffffffffffffffffffffffffffffff168273ffffffffffffffffffffffffffffffffffffffff161415611392576040517f08c379a000000000000000000000000000000000000000000000000000000000815260040161138990613335565b60405180910390fd5b600460008373ffffffffffffffffffffffffffffffffffffffff1673ffffffffffffffffffffffffffffffffffffffff168152602001908152602001600020549050919050565b6060600280546113e8906136ec565b80601f0160208091040260200160405190810160405280929190818152602001828054611414906136ec565b80156114615780601f1061143657610100808354040283529160200191611461565b820191906000526020600020905b81548152906001019060200180831161144457829003601f168201915b5050505050905090565b606060088054806020026020016040519081016040528092919081815260200182805480156114b957602002820191906000526020600020905b8154815260200190600101908083116114a5575b5050505050905090565b6114cb611bf0565b73ffffffffffffffffffffffffffffffffffffffff168273ffffffffffffffffffffffffffffffffffffffff161415611539576040517f08c379a0000000000000000000000000000000000000000000000000000000008152600401611530906132d5565b60405180910390fd5b8060066000611546611bf0565b73ffffffffffffffffffffffffffffffffffffffff1673ffffffffffffffffffffffffffffffffffffffff16815260200190815260200160002060008473ffffffffffffffffffffffffffffffffffffffff1673ffffffffffffffffffffffffffffffffffffffff16815260200190815260200160002060006101000a81548160ff0219169083151502179055508173ffffffffffffffffffffffffffffffffffffffff166115f3611bf0565b73ffffffffffffffffffffffffffffffffffffffff167f17307eab39ab6107e8899845ad3d59bd9653f200f220920489ca2b5937696c31836040516116389190613258565b60405180910390a35050565b61165561164f611bf0565b83611cb1565b611694576040517f08c379a000000000000000000000000000000000000000000000000000000000815260040161168b90613455565b60405180910390fd5b6116a084848484612311565b50505050565b60606116b182611b84565b6116f0576040517f08c379a00000000000000000000000000000000000000000000000000000000081526004016116e7906133f5565b60405180910390fd5b6000600760008481526020019081526020016000206001018054611713906136ec565b80601f016020809104026020016040519081016040528092919081815260200182805461173f906136ec565b801561178c5780601f106117615761010080835404028352916020019161178c565b820191906000526020600020905b81548152906001019060200180831161176f57829003601f168201915b5050505050905080915050919050565b60008073ffffffffffffffffffffffffffffffffffffffff168473ffffffffffffffffffffffffffffffffffffffff16141561180d576040517f08c379a000000000000000000000000000000000000000000000000000000000815260040161180490613395565b60405180910390fd5b8373ffffffffffffffffffffffffffffffffffffffff163373ffffffffffffffffffffffffffffffffffffffff161461184557600080fd5b6000611851600061236d565b905061185d600061237b565b6000600760008381526020019081526020016000209050336003600084815260200190815260200160002060006101000a81548173ffffffffffffffffffffffffffffffffffffffff021916908373ffffffffffffffffffffffffffffffffffffffff1602179055506001600460008873ffffffffffffffffffffffffffffffffffffffff1673ffffffffffffffffffffffffffffffffffffffff168152602001908152602001600020600082825461191691906135ac565b92505081905550600960008773ffffffffffffffffffffffffffffffffffffffff1673ffffffffffffffffffffffffffffffffffffffff1681526020019081526020016000208290806001815401808255809150506001900390600052602060002001600090919091909150556119d2828287878080601f016020809104026020016040519081016040528093929190818152602001838380828437600081840152601f19601f82011690508083019250505050505050612391565b60088290806001815401808255809150506001900390600052602060002001600090919091909150556001600880549050611a0d9190613602565b8160000181905550818673ffffffffffffffffffffffffffffffffffffffff16600073ffffffffffffffffffffffffffffffffffffffff167fddf252ad1be2c89b69c2b068fc378daa952ba7f163c4a11628f55a4df523b3ef60405160405180910390a4611a7b600061236d565b925050509392505050565b6000600660008473ffffffffffffffffffffffffffffffffffffffff1673ffffffffffffffffffffffffffffffffffffffff16815260200190815260200160002060008373ffffffffffffffffffffffffffffffffffffffff1673ffffffffffffffffffffffffffffffffffffffff16815260200190815260200160002060009054906101000a900460ff16905092915050565b60007f01ffc9a7000000000000000000000000000000000000000000000000000000007bffffffffffffffffffffffffffffffffffffffffffffffffffffffff1916827bffffffffffffffffffffffffffffffffffffffffffffffffffffffff1916149050919050565b60008073ffffffffffffffffffffffffffffffffffffffff166003600084815260200190815260200160002060009054906101000a900473ffffffffffffffffffffffffffffffffffffffff1673ffffffffffffffffffffffffffffffffffffffff1614159050919050565b600033905090565b816005600083815260200190815260200160002060006101000a81548173ffffffffffffffffffffffffffffffffffffffff021916908373ffffffffffffffffffffffffffffffffffffffff160217905550808273ffffffffffffffffffffffffffffffffffffffff16611c6b8361126f565b73ffffffffffffffffffffffffffffffffffffffff167f8c5be1e5ebec7d5bd14f71427d1e84f3dd0314c0f7b2291e5b200ac8c7c3b92560405160405180910390a45050565b6000611cbc82611b84565b611cfb576040517f08c379a0000000000000000000000000000000000000000000000000000000008152600401611cf2906132f5565b60405180910390fd5b6000611d068361126f565b90508073ffffffffffffffffffffffffffffffffffffffff168473ffffffffffffffffffffffffffffffffffffffff161480611d7557508373ffffffffffffffffffffffffffffffffffffffff16611d5d8461056a565b73ffffffffffffffffffffffffffffffffffffffff16145b80611d865750611d858185611a86565b5b91505092915050565b8273ffffffffffffffffffffffffffffffffffffffff16611daf8261126f565b73ffffffffffffffffffffffffffffffffffffffff1614611e05576040517f08c379a0000000000000000000000000000000000000000000000000000000008152600401611dfc906133d5565b60405180910390fd5b600073ffffffffffffffffffffffffffffffffffffffff168273ffffffffffffffffffffffffffffffffffffffff161415611e75576040517f08c379a0000000000000000000000000000000000000000000000000000000008152600401611e6c906132b5565b60405180910390fd5b611e80600082611bf8565b6001600460008573ffffffffffffffffffffffffffffffffffffffff1673ffffffffffffffffffffffffffffffffffffffff1681526020019081526020016000206000828254611ed09190613602565b925050819055506001600460008473ffffffffffffffffffffffffffffffffffffffff1673ffffffffffffffffffffffffffffffffffffffff1681526020019081526020016000206000828254611f2791906135ac565b92505081905550816003600083815260200190815260200160002060006101000a81548173ffffffffffffffffffffffffffffffffffffffff021916908373ffffffffffffffffffffffffffffffffffffffff16021790555060005b600960008573ffffffffffffffffffffffffffffffffffffffff1673ffffffffffffffffffffffffffffffffffffffff1681526020019081526020016000208054905081101561224a5781600960008673ffffffffffffffffffffffffffffffffffffffff1673ffffffffffffffffffffffffffffffffffffffff1681526020019081526020016000208281548110612045577f4e487b7100000000000000000000000000000000000000000000000000000000600052603260045260246000fd5b9060005260206000200154141561223757600960008573ffffffffffffffffffffffffffffffffffffffff1673ffffffffffffffffffffffffffffffffffffffff1681526020019081526020016000206001600960008773ffffffffffffffffffffffffffffffffffffffff1673ffffffffffffffffffffffffffffffffffffffff168152602001908152602001600020805490506120e49190613602565b8154811061211b577f4e487b7100000000000000000000000000000000000000000000000000000000600052603260045260246000fd5b9060005260206000200154600960008673ffffffffffffffffffffffffffffffffffffffff1673ffffffffffffffffffffffffffffffffffffffff168152602001908152602001600020828154811061219d577f4e487b7100000000000000000000000000000000000000000000000000000000600052603260045260246000fd5b9060005260206000200181905550600960008573ffffffffffffffffffffffffffffffffffffffff1673ffffffffffffffffffffffffffffffffffffffff168152602001908152602001600020805480612220577f4e487b7100000000000000000000000000000000000000000000000000000000600052603160045260246000fd5b600190038181906000526020600020016000905590555b80806122429061371e565b915050611f83565b50600960008373ffffffffffffffffffffffffffffffffffffffff1673ffffffffffffffffffffffffffffffffffffffff168152602001908152602001600020819080600181540180825580915050600190039060005260206000200160009091909190915055808273ffffffffffffffffffffffffffffffffffffffff168473ffffffffffffffffffffffffffffffffffffffff167fddf252ad1be2c89b69c2b068fc378daa952ba7f163c4a11628f55a4df523b3ef60405160405180910390a4505050565b61231c848484611d8f565b612328848484846123f7565b612367576040517f08c379a000000000000000000000000000000000000000000000000000000000815260040161235e90613295565b60405180910390fd5b50505050565b600081600001549050919050565b6001816000016000828254019250508190555050565b61239a83611b84565b6123d9576040517f08c379a00000000000000000000000000000000000000000000000000000000081526004016123d090613375565b60405180910390fd5b808260010190805190602001906123f19291906125e1565b50505050565b60006124188473ffffffffffffffffffffffffffffffffffffffff1661258e565b15612581578373ffffffffffffffffffffffffffffffffffffffff1663150b7a02612441611bf0565b8786866040518563ffffffff1660e01b815260040161246394939291906131c8565b602060405180830381600087803b15801561247d57600080fd5b505af19250505080156124ae57506040513d601f19601f820116820180604052508101906124ab91906129c7565b60015b612531573d80600081146124de576040519150601f19603f3d011682016040523d82523d6000602084013e6124e3565b606091505b50600081511415612529576040517f08c379a000000000000000000000000000000000000000000000000000000000815260040161252090613295565b60405180910390fd5b805181602001fd5b63150b7a0260e01b7bffffffffffffffffffffffffffffffffffffffffffffffffffffffff1916817bffffffffffffffffffffffffffffffffffffffffffffffffffffffff191614915050612586565b600190505b949350505050565b600080823b905060008111915050919050565b5080546125ad906136ec565b6000825580601f106125bf57506125de565b601f0160209004906000526020600020908101906125dd9190612667565b5b50565b8280546125ed906136ec565b90600052602060002090601f01602090048101928261260f5760008555612656565b82601f1061262857805160ff1916838001178555612656565b82800160010185558215612656579182015b8281111561265557825182559160200191906001019061263a565b5b5090506126639190612667565b5090565b5b80821115612680576000816000905550600101612668565b5090565b6000612697612692846134c1565b613490565b9050828152602081018484840111156126af57600080fd5b6126ba8482856136aa565b509392505050565b6000813590506126d181613805565b92915050565b6000813590506126e68161381c565b92915050565b6000813590506126fb81613833565b92915050565b60008151905061271081613833565b92915050565b600082601f83011261272757600080fd5b8135612737848260208601612684565b91505092915050565b60008083601f84011261275257600080fd5b8235905067ffffffffffffffff81111561276b57600080fd5b60208301915083600182028301111561278357600080fd5b9250929050565b6000813590506127998161384a565b92915050565b6000602082840312156127b157600080fd5b60006127bf848285016126c2565b91505092915050565b600080604083850312156127db57600080fd5b60006127e9858286016126c2565b92505060206127fa858286016126c2565b9150509250929050565b60008060006060848603121561281957600080fd5b6000612827868287016126c2565b9350506020612838868287016126c2565b92505060406128498682870161278a565b9150509250925092565b6000806000806080858703121561286957600080fd5b6000612877878288016126c2565b9450506020612888878288016126c2565b93505060406128998782880161278a565b925050606085013567ffffffffffffffff8111156128b657600080fd5b6128c287828801612716565b91505092959194509250565b600080604083850312156128e157600080fd5b60006128ef858286016126c2565b9250506020612900858286016126d7565b9150509250929050565b60008060006040848603121561291f57600080fd5b600061292d868287016126c2565b935050602084013567ffffffffffffffff81111561294a57600080fd5b61295686828701612740565b92509250509250925092565b6000806040838503121561297557600080fd5b6000612983858286016126c2565b92505060206129948582860161278a565b9150509250929050565b6000602082840312156129b057600080fd5b60006129be848285016126ec565b91505092915050565b6000602082840312156129d957600080fd5b60006129e784828501612701565b91505092915050565b600060208284031215612a0257600080fd5b6000612a108482850161278a565b91505092915050565b6000612a258383612b6f565b905092915050565b6000612a39838361318f565b60208301905092915050565b612a4e81613636565b82525050565b6000612a5f82613511565b612a698185613557565b935083602082028501612a7b856134f1565b8060005b85811015612ab75784840389528151612a988582612a19565b9450612aa38361353d565b925060208a01995050600181019050612a7f565b50829750879550505050505092915050565b6000612ad48261351c565b612ade8185613568565b9350612ae983613501565b8060005b83811015612b1a578151612b018882612a2d565b9750612b0c8361354a565b925050600181019050612aed565b5085935050505092915050565b612b3081613648565b82525050565b6000612b4182613527565b612b4b8185613579565b9350612b5b8185602086016136b9565b612b64816137f4565b840191505092915050565b6000612b7a82613532565b612b84818561358a565b9350612b948185602086016136b9565b612b9d816137f4565b840191505092915050565b6000612bb382613532565b612bbd818561359b565b9350612bcd8185602086016136b9565b612bd6816137f4565b840191505092915050565b6000612bee60328361359b565b91507f4552433732313a207472616e7366657220746f206e6f6e20455243373231526560008301527f63656976657220696d706c656d656e74657200000000000000000000000000006020830152604082019050919050565b6000612c5460248361359b565b91507f4552433732313a207472616e7366657220746f20746865207a65726f2061646460008301527f72657373000000000000000000000000000000000000000000000000000000006020830152604082019050919050565b6000612cba60198361359b565b91507f4552433732313a20617070726f766520746f2063616c6c6572000000000000006000830152602082019050919050565b6000612cfa602c8361359b565b91507f4552433732313a206f70657261746f7220717565727920666f72206e6f6e657860008301527f697374656e7420746f6b656e00000000000000000000000000000000000000006020830152604082019050919050565b6000612d6060388361359b565b91507f4552433732313a20617070726f76652063616c6c6572206973206e6f74206f7760008301527f6e6572206e6f7220617070726f76656420666f7220616c6c00000000000000006020830152604082019050919050565b6000612dc6602a8361359b565b91507f4552433732313a2062616c616e636520717565727920666f7220746865207a6560008301527f726f2061646472657373000000000000000000000000000000000000000000006020830152604082019050919050565b6000612e2c60298361359b565b91507f4552433732313a206f776e657220717565727920666f72206e6f6e657869737460008301527f656e7420746f6b656e00000000000000000000000000000000000000000000006020830152604082019050919050565b6000612e92602e8361359b565b91507f45524337323155524953746f726167653a2055524920736574206f66206e6f6e60008301527f6578697374656e7420746f6b656e0000000000000000000000000000000000006020830152604082019050919050565b6000612ef860208361359b565b91507f4552433732313a206d696e7420746f20746865207a65726f20616464726573736000830152602082019050919050565b6000612f38602c8361359b565b91507f4552433732313a20617070726f76656420717565727920666f72206e6f6e657860008301527f697374656e7420746f6b656e00000000000000000000000000000000000000006020830152604082019050919050565b6000612f9e60298361359b565b91507f4552433732313a207472616e73666572206f6620746f6b656e2074686174206960008301527f73206e6f74206f776e00000000000000000000000000000000000000000000006020830152604082019050919050565b6000613004602f8361359b565b91507f4552433732314d657461646174613a2055524920717565727920666f72206e6f60008301527f6e6578697374656e7420746f6b656e00000000000000000000000000000000006020830152604082019050919050565b600061306a60218361359b565b91507f4552433732313a20617070726f76616c20746f2063757272656e74206f776e6560008301527f72000000000000000000000000000000000000000000000000000000000000006020830152604082019050919050565b60006130d060288361359b565b91507f6d73672e73656e646572206973204e4f5420746865206f776e6572206f66207460008301527f686520746f6b656e0000000000000000000000000000000000000000000000006020830152604082019050919050565b600061313660318361359b565b91507f4552433732313a207472616e736665722063616c6c6572206973206e6f74206f60008301527f776e6572206e6f7220617070726f7665640000000000000000000000000000006020830152604082019050919050565b613198816136a0565b82525050565b6131a7816136a0565b82525050565b60006020820190506131c26000830184612a45565b92915050565b60006080820190506131dd6000830187612a45565b6131ea6020830186612a45565b6131f7604083018561319e565b81810360608301526132098184612b36565b905095945050505050565b6000602082019050818103600083015261322e8184612a54565b905092915050565b600060208201905081810360008301526132508184612ac9565b905092915050565b600060208201905061326d6000830184612b27565b92915050565b6000602082019050818103600083015261328d8184612ba8565b905092915050565b600060208201905081810360008301526132ae81612be1565b9050919050565b600060208201905081810360008301526132ce81612c47565b9050919050565b600060208201905081810360008301526132ee81612cad565b9050919050565b6000602082019050818103600083015261330e81612ced565b9050919050565b6000602082019050818103600083015261332e81612d53565b9050919050565b6000602082019050818103600083015261334e81612db9565b9050919050565b6000602082019050818103600083015261336e81612e1f565b9050919050565b6000602082019050818103600083015261338e81612e85565b9050919050565b600060208201905081810360008301526133ae81612eeb565b9050919050565b600060208201905081810360008301526133ce81612f2b565b9050919050565b600060208201905081810360008301526133ee81612f91565b9050919050565b6000602082019050818103600083015261340e81612ff7565b9050919050565b6000602082019050818103600083015261342e8161305d565b9050919050565b6000602082019050818103600083015261344e816130c3565b9050919050565b6000602082019050818103600083015261346e81613129565b9050919050565b600060208201905061348a600083018461319e565b92915050565b6000604051905081810181811067ffffffffffffffff821117156134b7576134b66137c5565b5b8060405250919050565b600067ffffffffffffffff8211156134dc576134db6137c5565b5b601f19601f8301169050602081019050919050565b6000819050602082019050919050565b6000819050602082019050919050565b600081519050919050565b600081519050919050565b600081519050919050565b600081519050919050565b6000602082019050919050565b6000602082019050919050565b600082825260208201905092915050565b600082825260208201905092915050565b600082825260208201905092915050565b600082825260208201905092915050565b600082825260208201905092915050565b60006135b7826136a0565b91506135c2836136a0565b9250827fffffffffffffffffffffffffffffffffffffffffffffffffffffffffffffffff038211156135f7576135f6613767565b5b828201905092915050565b600061360d826136a0565b9150613618836136a0565b92508282101561362b5761362a613767565b5b828203905092915050565b600061364182613680565b9050919050565b60008115159050919050565b60007fffffffff0000000000000000000000000000000000000000000000000000000082169050919050565b600073ffffffffffffffffffffffffffffffffffffffff82169050919050565b6000819050919050565b82818337600083830152505050565b60005b838110156136d75780820151818401526020810190506136bc565b838111156136e6576000848401525b50505050565b6000600282049050600182168061370457607f821691505b6020821081141561371857613717613796565b5b50919050565b6000613729826136a0565b91507fffffffffffffffffffffffffffffffffffffffffffffffffffffffffffffffff82141561375c5761375b613767565b5b600182019050919050565b7f4e487b7100000000000000000000000000000000000000000000000000000000600052601160045260246000fd5b7f4e487b7100000000000000000000000000000000000000000000000000000000600052602260045260246000fd5b7f4e487b7100000000000000000000000000000000000000000000000000000000600052604160045260246000fd5b6000601f19601f8301169050919050565b61380e81613636565b811461381957600080fd5b50565b61382581613648565b811461383057600080fd5b50565b61383c81613654565b811461384757600080fd5b50565b613853816136a0565b811461385e57600080fd5b5056fea2646970667358221220d17cceb6ff6760ee2d4cedd66420c896678b847741ca7f504ff5607b2f22d19064736f6c63430008000033",
  "immutableReferences": {},
  "source": "// SPDX-License-Identifier: MIT\n\npragma solidity ^0.8.0;\n\nimport \"./IERC721.sol\";\nimport \"./IERC721Receiver.sol\";\nimport \"./IERC721Metadata.sol\";\nimport \"./Address.sol\";\nimport \"./SafeMath.sol\";\nimport \"./Context.sol\";\nimport \"./Strings.sol\";\nimport \"./ERC165.sol\";\nimport \"./Counters.sol\";\n\n/**\n * @dev Implementation of https://eips.ethereum.org/EIPS/eip-721[ERC721] Non-Fungible Token Standard, including\n * the Metadata extension, but not including the Enumerable extension, which is available separately as\n * {ERC721Enumerable}.\n */\n\ncontract ERC721 is Context, ERC165, IERC721, IERC721Metadata {\n    using Address for address;\n    using Strings for uint256;\n    using Counters for Counters.Counter;\n\n    Counters.Counter private _tokenIds;\n    // Token name\n    string private _name;\n\n    // Token symbol\n    string private _symbol;\n\n    // Mapping from token ID to owner address\n    mapping(uint256 => address) private _owners;\n\n    // Mapping owner address to token count\n    mapping(address => uint256) private _balances;\n\n    // Mapping from token ID to approved address\n    mapping(uint256 => address) private _tokenApprovals;\n\n    // Mapping from owner to operator approvals\n    mapping(address => mapping(address => bool)) private _operatorApprovals;\n\n    //ipfshash  \n    mapping(uint256 => asset) private _tokenURIs;\n\n    struct asset {\n        uint tokenIdListIndex;\n        string ipfsHash;\n    }\n\n    uint256 [] private _tokenIdList;\n\n    mapping(address => uint256 [] ) private _myAllTokenIds;\n\n    /**\n     * @dev Initializes the contract by setting a `name` and a `symbol` to the token collection.\n     */\n    constructor(string memory name_, string memory symbol_) {\n        _name = name_;\n        _symbol = symbol_;\n    }\n\n    /**\n     * @dev See {IERC165-supportsInterface}.\n     */\n    function supportsInterface(bytes4 interfaceId) public view virtual override(ERC165, IERC165) returns (bool) {\n        return\n            interfaceId == type(IERC721).interfaceId ||\n            interfaceId == type(IERC721Metadata).interfaceId ||\n            super.supportsInterface(interfaceId);\n    }\n\n    /**\n     * @dev See {IERC721-balanceOf}.\n     */\n    function balanceOf(address owner) public view virtual override returns (uint256) {\n        require(owner != address(0), \"ERC721: balance query for the zero address\");\n        return _balances[owner];\n    }\n\n    /**\n     * @dev See {IERC721-ownerOf}.\n     */\n    function ownerOf(uint256 tokenId) public view virtual override returns (address) {\n        address owner = _owners[tokenId];\n        require(owner != address(0), \"ERC721: owner query for nonexistent token\");\n        return owner;\n    }\n    /**\n     * @dev See {IERC721Metadata-name}.\n     */\n    function name() public view virtual override returns (string memory) {\n        return _name;\n    }\n\n    /**\n     * @dev See {IERC721Metadata-symbol}.\n     */\n    function symbol() public view virtual override returns (string memory) {\n        return _symbol;\n    }\n\n    /**\n     * @dev See {IERC721Metadata-tokenURI}.\n     */\n    function tokenURI(uint256 tokenId) public view virtual override returns (string memory) {\n        require(_exists(tokenId), \"ERC721Metadata: URI query for nonexistent token\");\n\n        string memory ipfsHashAddr = _tokenURIs[tokenId].ipfsHash;\n        /*\n        string memory base = _baseURI();\n        \n        if (bytes(base).length == 0) {\n            return ipfsHashAddr;\n        }\n        // If both are set, concatenate the baseURI and tokenURI (via abi.encodePacked).\n        if (bytes(ipfsHashAddr).length > 0) {\n            return string(abi.encodePacked(base, ipfsHashAddr));\n        }\n\n        return bytes(base).length > 0 ? string(abi.encodePacked(base, tokenId.toString())) : \"\";\n\n        */\n\n        return ipfsHashAddr;\n    }   \n\n    function getAllTokensHash() public view returns (string [] memory) {\n        string [] memory result = new string[](_tokenIdList.length);\n\n        for(uint i = 0 ; i < _tokenIdList.length ; i++) {\n            string memory ipfsHashAddr = _tokenURIs[_tokenIdList[i]].ipfsHash;\n            result[i] = ipfsHashAddr;\n        }\n\n        return result;\n    }\n\n    function getMyAllTokenids(address owner) public view returns (uint [] memory) {\n        return _myAllTokenIds[owner];\n    }\n\n    function getMyAllTokensHash(address owner) public view returns (string [] memory) {\n        string [] memory result = new string[](_myAllTokenIds[owner].length);\n\n        for(uint i = 0 ; i < _myAllTokenIds[owner].length ; i++) {\n            string memory ipfsHashAddr = _tokenURIs[_myAllTokenIds[owner][i]].ipfsHash;\n            result[i] = ipfsHashAddr;\n        }\n\n        return result;\n    }\n\n    function getAllEnableTokenIds() public view returns (uint [] memory) {\n        return _tokenIdList;\n    }\n\n\n    /**\n     * @dev Base URI for computing {tokenURI}. If set, the resulting URI for each\n     * token will be the concatenation of the `baseURI` and the `tokenId`. Empty\n     * by default, can be overriden in child contracts.\n     */\n\n    function _baseURI() internal view virtual returns (string memory) {\n        return \"https://ipfs.io/ipfs/\";\n    }\n\n    /**\n     * @dev See {IERC721-approve}.\n     */\n\n    function approve(address to, uint256 tokenId) public virtual override {\n        address owner = ERC721.ownerOf(tokenId);\n        require(to != owner, \"ERC721: approval to current owner\");\n\n        require(\n            _msgSender() == owner || isApprovedForAll(owner, _msgSender()),\n            \"ERC721: approve caller is not owner nor approved for all\"\n        );\n\n        _approve(to, tokenId);\n    }\n\n    /**\n     * @dev See {IERC721-getApproved}.\n     */\n    function getApproved(uint256 tokenId) public view virtual override returns (address) {\n        require(_exists(tokenId), \"ERC721: approved query for nonexistent token\");\n\n        return _tokenApprovals[tokenId];\n    }\n\n    /**\n     * @dev See {IERC721-setApprovalForAll}.\n     */\n    function setApprovalForAll(address operator, bool approved) public virtual override {\n        require(operator != _msgSender(), \"ERC721: approve to caller\");\n\n        _operatorApprovals[_msgSender()][operator] = approved;\n        emit ApprovalForAll(_msgSender(), operator, approved);\n    }\n\n    /**\n     * @dev See {IERC721-isApprovedForAll}.\n     */\n\n    function isApprovedForAll(address owner, address operator) public view virtual override returns (bool) {\n        return _operatorApprovals[owner][operator];\n    }\n\n    /**\n     * @dev See {IERC721-transferFrom}.\n     */\n\n    function transferFrom(\n        address from,\n        address to,\n        uint256 tokenId\n    ) public virtual override {\n        //solhint-disable-next-line max-line-length\n        require(_isApprovedOrOwner(_msgSender(), tokenId), \"ERC721: transfer caller is not owner nor approved\");\n\n        _transfer(from, to, tokenId);\n    }\n\n    /**\n     * @dev See {IERC721-safeTransferFrom}.\n     */\n\n    function safeTransferFrom(\n        address from,\n        address to,\n        uint256 tokenId\n    ) public virtual override{\n        safeTransferFrom(from, to, tokenId, \"\");\n    }\n\n    /**\n     * @dev See {IERC721-safeTransferFrom}.\n     */\n\n    function safeTransferFrom(\n        address from,\n        address to,\n        uint256 tokenId,\n        bytes memory _data\n    ) public virtual override {\n        require(_isApprovedOrOwner(_msgSender(), tokenId), \"ERC721: transfer caller is not owner nor approved\");\n        _safeTransfer(from, to, tokenId, _data);\n    }\n\n    /* \n     * @dev Safely transfers `tokenId` token from `from` to `to`, checking first that contract recipients\n     * are aware of the ERC721 protocol to prevent tokens from being forever locked.\n     *\n     * `_data` is additional data, it has no specified format and it is sent in call to `to`.\n     *\n     * This internal function is equivalent to {safeTransferFrom}, and can be used to e.g.\n     * implement alternative mechanisms to perform token transfer, such as signature-based.\n     *\n     * Requirements:\n     *\n     * - `from` cannot be the zero address.\n     * - `to` cannot be the zero address.\n     * - `tokenId` token must exist and be owned by `from`.\n     * - If `to` refers to a smart contract, it must implement {IERC721Receiver-onERC721Received}, which is called upon a safe transfer.\n     *\n     * Emits a {Transfer} event.\n     */\n\n    function _safeTransfer(\n        address from,\n        address to,\n        uint256 tokenId,\n        bytes memory _data\n    ) internal virtual {\n        _transfer(from, to, tokenId);\n        require(_checkOnERC721Received(from, to, tokenId, _data), \"ERC721: transfer to non ERC721Receiver implementer\");\n    }\n\n    /**\n     * @dev Returns whether `tokenId` exists.\n     *\n     * Tokens can be managed by their owner or approved accounts via {approve} or {setApprovalForAll}.\n     *\n     * Tokens start existing when they are minted (`_mint`),\n     * and stop existing when they are burned (`_burn`).\n     */\n    function _exists(uint256 tokenId) internal view virtual returns (bool) {\n        return _owners[tokenId] != address(0);\n    }\n\n    /**\n     * @dev Returns whether `spender` is allowed to manage `tokenId`.\n     *\n     * Requirements:\n     *\n     * - `tokenId` must exist.\n     */\n    function _isApprovedOrOwner(address spender, uint256 tokenId) internal view virtual returns (bool) {\n        require(_exists(tokenId), \"ERC721: operator query for nonexistent token\");\n        address owner = ERC721.ownerOf(tokenId);\n        return (spender == owner || getApproved(tokenId) == spender || isApprovedForAll(owner, spender));\n    }\n\n    function mint(address to, string calldata ipfsHash) external returns (uint256) {\n        require(to != address(0), \"ERC721: mint to the zero address\");\n        require(msg.sender == to);\n\n        uint256 tokenId = _tokenIds.current();\n        _tokenIds.increment();\n\n        asset storage newAsset = _tokenURIs[tokenId];\n\n        _owners[tokenId] = msg.sender;\n        _balances[to] += 1;\n        _myAllTokenIds[to].push(tokenId);\n\n        _setTokenURI(tokenId, newAsset, ipfsHash);\n        _tokenIdList.push(tokenId);\n        newAsset.tokenIdListIndex = _tokenIdList.length - 1;\n\n        emit Transfer(address(0), to, tokenId);\n        return _tokenIds.current();\n    }\n\n    function _setTokenURI(uint256 tokenId, asset storage newAsset, string memory ipfsHash) internal virtual {\n        require(_exists(tokenId), \"ERC721URIStorage: URI set of nonexistent token\");\n        newAsset.ipfsHash = ipfsHash;\n    }\n\n    /**\n     * @dev Destroys `tokenId`.\n     * The approval is cleared when the token is burned.\n     *\n     * Requirements:\n     *\n     * - `tokenId` must exist.\n     *\n     * Emits a {Transfer} event.\n     */\n \n\n    function burn(uint256 tokenId) external {\n        require(_exists(tokenId), \"ERC721: operator query for nonexistent token\");\n        address owner = ERC721.ownerOf(tokenId);\n        require(owner == msg.sender, \"msg.sender is NOT the owner of the token\");\n\n        // Clear approvals\n        _approve(address(0), tokenId);\n\n        _balances[owner] -= 1;\n        delete _owners[tokenId];\n\n        for(uint i = 0 ; i < _myAllTokenIds[owner].length ; i++){\n            if(_myAllTokenIds[owner][i] == tokenId) {\n                _myAllTokenIds[owner][i] = _myAllTokenIds[owner][_myAllTokenIds[owner].length - 1];\n                _myAllTokenIds[owner].pop();\n                return;\n            }\n        }\n\n        uint tokenLastIndex = _tokenIdList.length - 1;\n        uint tokenLastIndexItem = _tokenIdList[tokenLastIndex];\n        uint burnableTokenIndex = _tokenURIs[tokenId].tokenIdListIndex;\n\n        _tokenIdList[burnableTokenIndex] = tokenLastIndexItem;\n\n        _tokenIdList.pop();\n        _tokenURIs[tokenLastIndexItem].tokenIdListIndex = burnableTokenIndex;\n\n        delete _tokenURIs[tokenId];\n\n        emit Transfer(owner, address(0), tokenId);\n    }\n\n    /**\n     * @dev Transfers `tokenId` from `from` to `to`.\n     *  As opposed to {transferFrom}, this imposes no restrictions on msg.sender.\n     *\n     * Requirements:\n     *\n     * - `to` cannot be the zero address.\n     * - `tokenId` token must be owned by `from`.\n     *\n     * Emits a {Transfer} event.\n     */\n    function _transfer(\n        address from,\n        address to,\n        uint256 tokenId\n    ) internal virtual {\n        require(ERC721.ownerOf(tokenId) == from, \"ERC721: transfer of token that is not own\");\n        require(to != address(0), \"ERC721: transfer to the zero address\");\n\n        // Clear approvals from the previous owner\n        _approve(address(0), tokenId);\n\n        _balances[from] -= 1;\n        _balances[to] += 1;\n        _owners[tokenId] = to;\n\n        for(uint i = 0 ; i < _myAllTokenIds[from].length ; i++){\n            if(_myAllTokenIds[from][i] == tokenId) {\n                _myAllTokenIds[from][i] = _myAllTokenIds[from][_myAllTokenIds[from].length - 1];\n                _myAllTokenIds[from].pop();\n            }\n        }\n\n        _myAllTokenIds[to].push(tokenId);\n\n        emit Transfer(from, to, tokenId);\n    }\n\n    /**\n     * @dev Approve `to` to operate on `tokenId`\n     *\n     * Emits a {Approval} event.\n     */\n    function _approve(address to, uint256 tokenId) internal virtual {\n        _tokenApprovals[tokenId] = to;\n        emit Approval(ERC721.ownerOf(tokenId), to, tokenId);\n    }\n\n    /**\n     * @dev Internal function to invoke {IERC721Receiver-onERC721Received} on a target address.\n     * The call is not executed if the target address is not a contract.\n     *\n     * @param from address representing the previous owner of the given token ID\n     * @param to target address that will receive the tokens\n     * @param tokenId uint256 ID of the token to be transferred\n     * @param _data bytes optional data to send along with the call\n     * @return bool whether the call correctly returned the expected magic value\n     */\n    function _checkOnERC721Received(\n        address from,\n        address to,\n        uint256 tokenId,\n        bytes memory _data\n    ) private returns (bool) {\n        if (to.isContract()) {\n            try IERC721Receiver(to).onERC721Received(_msgSender(), from, tokenId, _data) returns (bytes4 retval) {\n                return retval == IERC721Receiver.onERC721Received.selector;\n            } catch (bytes memory reason) {\n                if (reason.length == 0) {\n                    revert(\"ERC721: transfer to non ERC721Receiver implementer\");\n                } else {\n                    assembly {\n                        revert(add(32, reason), mload(reason))\n                    }\n                }\n            }\n        } else {\n            return true;\n        }\n    }\n\n}\n\n\n",
  "sourcePath": "C:/Users/qjarl/Desktop/21_hf252-assetAddForm/21_hf252-assetAddForm/contracts/ERC721.sol",
  "compiler": {
    "name": "solc",
    "version": "0.8.0+commit.c7dfd78e.Emscripten.clang"
  },
  "schemaVersion": "3.4.1",
  "updatedAt": "2021-11-10T05:11:52.400Z",
  "networkType": "ethereum",
  "devdoc": {
    "details": "Implementation of https://eips.ethereum.org/EIPS/eip-721[ERC721] Non-Fungible Token Standard, including the Metadata extension, but not including the Enumerable extension, which is available separately as {ERC721Enumerable}.",
    "kind": "dev",
    "methods": {
      "approve(address,uint256)": {
        "details": "See {IERC721-approve}."
      },
      "balanceOf(address)": {
        "details": "See {IERC721-balanceOf}."
      },
      "burn(uint256)": {
        "details": "Destroys `tokenId`. The approval is cleared when the token is burned. Requirements: - `tokenId` must exist. Emits a {Transfer} event."
      },
      "constructor": {
        "details": "Initializes the contract by setting a `name` and a `symbol` to the token collection."
      },
      "getApproved(uint256)": {
        "details": "See {IERC721-getApproved}."
      },
      "isApprovedForAll(address,address)": {
        "details": "See {IERC721-isApprovedForAll}."
      },
      "name()": {
        "details": "See {IERC721Metadata-name}."
      },
      "ownerOf(uint256)": {
        "details": "See {IERC721-ownerOf}."
      },
      "safeTransferFrom(address,address,uint256)": {
        "details": "See {IERC721-safeTransferFrom}."
      },
      "safeTransferFrom(address,address,uint256,bytes)": {
        "details": "See {IERC721-safeTransferFrom}."
      },
      "setApprovalForAll(address,bool)": {
        "details": "See {IERC721-setApprovalForAll}."
      },
      "supportsInterface(bytes4)": {
        "details": "See {IERC165-supportsInterface}."
      },
      "symbol()": {
        "details": "See {IERC721Metadata-symbol}."
      },
      "tokenURI(uint256)": {
        "details": "See {IERC721Metadata-tokenURI}."
      },
      "transferFrom(address,address,uint256)": {
        "details": "See {IERC721-transferFrom}."
      }
    },
    "version": 1
  },
  "userdoc": {
    "kind": "user",
    "methods": {},
    "version": 1
  }
}